{
  "_format": "hh-sol-artifact-1",
  "contractName": "Breeder",
  "sourceName": "contracts/Breeder.sol",
  "abi": [
    {
      "inputs": [],
      "stateMutability": "nonpayable",
      "type": "constructor"
    },
    {
      "anonymous": false,
      "inputs": [
        {
          "indexed": true,
          "internalType": "address",
          "name": "owner",
          "type": "address"
        },
        {
          "indexed": true,
          "internalType": "address",
          "name": "approved",
          "type": "address"
        },
        {
          "indexed": true,
          "internalType": "uint256",
          "name": "tokenId",
          "type": "uint256"
        }
      ],
      "name": "Approval",
      "type": "event"
    },
    {
      "anonymous": false,
      "inputs": [
        {
          "indexed": true,
          "internalType": "address",
          "name": "owner",
          "type": "address"
        },
        {
          "indexed": true,
          "internalType": "address",
          "name": "operator",
          "type": "address"
        },
        {
          "indexed": false,
          "internalType": "bool",
          "name": "approved",
          "type": "bool"
        }
      ],
      "name": "ApprovalForAll",
      "type": "event"
    },
    {
      "anonymous": false,
      "inputs": [
        {
          "indexed": true,
          "internalType": "address",
          "name": "previousOwner",
          "type": "address"
        },
        {
          "indexed": true,
          "internalType": "address",
          "name": "newOwner",
          "type": "address"
        }
      ],
      "name": "OwnershipTransferred",
      "type": "event"
    },
    {
      "anonymous": false,
      "inputs": [
        {
          "indexed": true,
          "internalType": "address",
          "name": "from",
          "type": "address"
        },
        {
          "indexed": true,
          "internalType": "address",
          "name": "to",
          "type": "address"
        },
        {
          "indexed": true,
          "internalType": "uint256",
          "name": "tokenId",
          "type": "uint256"
        }
      ],
      "name": "Transfer",
      "type": "event"
    },
    {
      "inputs": [
        {
          "internalType": "address",
          "name": "to",
          "type": "address"
        },
        {
          "internalType": "uint256",
          "name": "tokenId",
          "type": "uint256"
        }
      ],
      "name": "approve",
      "outputs": [],
      "stateMutability": "nonpayable",
      "type": "function"
    },
    {
      "inputs": [
        {
          "internalType": "address",
          "name": "owner",
          "type": "address"
        }
      ],
      "name": "balanceOf",
      "outputs": [
        {
          "internalType": "uint256",
          "name": "",
          "type": "uint256"
        }
      ],
      "stateMutability": "view",
      "type": "function"
    },
    {
      "inputs": [
        {
          "internalType": "uint256",
          "name": "_fatherTokenId",
          "type": "uint256"
        },
        {
          "internalType": "uint256",
          "name": "_motherTokenId",
          "type": "uint256"
        }
      ],
      "name": "breedNft",
      "outputs": [],
      "stateMutability": "payable",
      "type": "function"
    },
    {
      "inputs": [
        {
          "internalType": "string",
          "name": "bgHue",
          "type": "string"
        },
        {
          "internalType": "string",
          "name": "textHue",
          "type": "string"
        },
        {
          "internalType": "string",
          "name": "name",
          "type": "string"
        }
      ],
      "name": "buildImage",
      "outputs": [
        {
          "internalType": "string",
          "name": "",
          "type": "string"
        }
      ],
      "stateMutability": "pure",
      "type": "function"
    },
    {
      "inputs": [
        {
          "internalType": "string[]",
          "name": "_weapons",
          "type": "string[]"
        },
        {
          "internalType": "string[]",
          "name": "_environments",
          "type": "string[]"
        },
        {
          "internalType": "uint256[]",
          "name": "_rarities",
          "type": "uint256[]"
        },
        {
          "internalType": "bool",
          "name": "_breed",
          "type": "bool"
        }
      ],
      "name": "createNFT",
      "outputs": [
        {
          "components": [
            {
              "internalType": "uint256",
              "name": "id",
              "type": "uint256"
            },
            {
              "internalType": "address",
              "name": "owner",
              "type": "address"
            },
            {
              "internalType": "uint256",
              "name": "mintCost",
              "type": "uint256"
            },
            {
              "internalType": "uint256",
              "name": "timestamp",
              "type": "uint256"
            },
            {
              "components": [
                {
                  "internalType": "string",
                  "name": "name",
                  "type": "string"
                },
                {
                  "internalType": "string",
                  "name": "description",
                  "type": "string"
                },
                {
                  "internalType": "string",
                  "name": "weapon",
                  "type": "string"
                },
                {
                  "internalType": "string",
                  "name": "image",
                  "type": "string"
                },
                {
                  "internalType": "string",
                  "name": "environment",
                  "type": "string"
                },
                {
                  "internalType": "string",
                  "name": "bgHue",
                  "type": "string"
                },
                {
                  "internalType": "string",
                  "name": "textHue",
                  "type": "string"
                },
                {
                  "internalType": "uint256",
                  "name": "rarity",
                  "type": "uint256"
                },
                {
                  "internalType": "bool",
                  "name": "breeded",
                  "type": "bool"
                },
                {
                  "internalType": "uint256[]",
                  "name": "parents",
                  "type": "uint256[]"
                }
              ],
              "internalType": "struct Breeder.TraitStruct",
              "name": "traits",
              "type": "tuple"
            }
          ],
          "internalType": "struct Breeder.MintStruct",
          "name": "nft",
          "type": "tuple"
        }
      ],
      "stateMutability": "view",
      "type": "function"
    },
    {
      "inputs": [
        {
          "internalType": "uint256",
          "name": "tokenId",
          "type": "uint256"
        }
      ],
      "name": "getApproved",
      "outputs": [
        {
          "internalType": "address",
          "name": "",
          "type": "address"
        }
      ],
      "stateMutability": "view",
      "type": "function"
    },
    {
      "inputs": [
        {
          "internalType": "address",
          "name": "owner",
          "type": "address"
        },
        {
          "internalType": "address",
          "name": "operator",
          "type": "address"
        }
      ],
      "name": "isApprovedForAll",
      "outputs": [
        {
          "internalType": "bool",
          "name": "",
          "type": "bool"
        }
      ],
      "stateMutability": "view",
      "type": "function"
    },
    {
      "inputs": [],
      "name": "mint",
      "outputs": [],
      "stateMutability": "payable",
      "type": "function"
    },
    {
      "inputs": [],
      "name": "name",
      "outputs": [
        {
          "internalType": "string",
          "name": "",
          "type": "string"
        }
      ],
      "stateMutability": "view",
      "type": "function"
    },
    {
      "inputs": [],
      "name": "owner",
      "outputs": [
        {
          "internalType": "address",
          "name": "",
          "type": "address"
        }
      ],
      "stateMutability": "view",
      "type": "function"
    },
    {
      "inputs": [
        {
          "internalType": "uint256",
          "name": "tokenId",
          "type": "uint256"
        }
      ],
      "name": "ownerOf",
      "outputs": [
        {
          "internalType": "address",
          "name": "",
          "type": "address"
        }
      ],
      "stateMutability": "view",
      "type": "function"
    },
    {
      "inputs": [
        {
          "internalType": "uint256",
          "name": "_mod",
          "type": "uint256"
        },
        {
          "internalType": "uint256",
          "name": "_seed",
          "type": "uint256"
        },
        {
          "internalType": "uint256",
          "name": "_salt",
          "type": "uint256"
        }
      ],
      "name": "randomNum",
      "outputs": [
        {
          "internalType": "uint256",
          "name": "",
          "type": "uint256"
        }
      ],
      "stateMutability": "view",
      "type": "function"
    },
    {
      "inputs": [],
      "name": "renounceOwnership",
      "outputs": [],
      "stateMutability": "nonpayable",
      "type": "function"
    },
    {
      "inputs": [
        {
          "internalType": "address",
          "name": "from",
          "type": "address"
        },
        {
          "internalType": "address",
          "name": "to",
          "type": "address"
        },
        {
          "internalType": "uint256",
          "name": "tokenId",
          "type": "uint256"
        }
      ],
      "name": "safeTransferFrom",
      "outputs": [],
      "stateMutability": "nonpayable",
      "type": "function"
    },
    {
      "inputs": [
        {
          "internalType": "address",
          "name": "from",
          "type": "address"
        },
        {
          "internalType": "address",
          "name": "to",
          "type": "address"
        },
        {
          "internalType": "uint256",
          "name": "tokenId",
          "type": "uint256"
        },
        {
          "internalType": "bytes",
          "name": "data",
          "type": "bytes"
        }
      ],
      "name": "safeTransferFrom",
      "outputs": [],
      "stateMutability": "nonpayable",
      "type": "function"
    },
    {
      "inputs": [
        {
          "internalType": "address",
          "name": "operator",
          "type": "address"
        },
        {
          "internalType": "bool",
          "name": "approved",
          "type": "bool"
        }
      ],
      "name": "setApprovalForAll",
      "outputs": [],
      "stateMutability": "nonpayable",
      "type": "function"
    },
    {
      "inputs": [
        {
          "internalType": "bytes4",
          "name": "interfaceId",
          "type": "bytes4"
        }
      ],
      "name": "supportsInterface",
      "outputs": [
        {
          "internalType": "bool",
          "name": "",
          "type": "bool"
        }
      ],
      "stateMutability": "view",
      "type": "function"
    },
    {
      "inputs": [],
      "name": "symbol",
      "outputs": [
        {
          "internalType": "string",
          "name": "",
          "type": "string"
        }
      ],
      "stateMutability": "view",
      "type": "function"
    },
    {
      "inputs": [
        {
          "internalType": "uint256",
          "name": "_tokenId",
          "type": "uint256"
        }
      ],
      "name": "tokenURI",
      "outputs": [
        {
          "internalType": "string",
          "name": "",
          "type": "string"
        }
      ],
      "stateMutability": "view",
      "type": "function"
    },
    {
      "inputs": [
        {
          "internalType": "address",
          "name": "from",
          "type": "address"
        },
        {
          "internalType": "address",
          "name": "to",
          "type": "address"
        },
        {
          "internalType": "uint256",
          "name": "tokenId",
          "type": "uint256"
        }
      ],
      "name": "transferFrom",
      "outputs": [],
      "stateMutability": "nonpayable",
      "type": "function"
    },
    {
      "inputs": [
        {
          "internalType": "address",
          "name": "newOwner",
          "type": "address"
        }
      ],
      "name": "transferOwnership",
      "outputs": [],
      "stateMutability": "nonpayable",
      "type": "function"
    }
  ],
  "bytecode": "0x600561018081815264537469636b60d81b6101a05260809081526101c0828152644b6e69666560d81b6101e05260a05261020082815264426c61646560d81b6102205260c05260046102409081526321b63ab160e11b6102605260e052600261028090815261082f60f31b6102a052610100526102c08281526414dddbdc9960da1b6102e052610120526103009182526429b832b0b960d91b610320526101409190915261038060405260076103409081526612185b18995c9960ca1b6103605261016052620000d490600990600862000325565b5060408051610140810182526005610100820190815264537061636560d81b6101208301528152815180830183526003815262536b7960e81b60208281019190915280830191909152825180840184526007808252664465736572747360c81b82840152838501919091528351808501855290815266466f726573747360c81b81830152606083015282518084018452600a8082526947726173736c616e647360b01b8284015260808401919091528351808501855260098152684d6f756e7461696e7360b81b8184015260a08401528351808501855260068152654f6365616e7360d01b8184015260c08401528351808501909452600b84526a5261696e666f726573747360a81b9184019190915260e0820192909252620001fa9190600862000325565b5060408051600580825260c08201909252906020820160a080368337505081516200022d92600b92506020019062000382565b5066470de4df820000600d553480156200024657600080fd5b506040518060400160405280600b81526020016a109c995959195c8813919560aa1b8152506040518060400160405280600381526020016210919560ea1b8152508160009081620002989190620004ed565b506001620002a78282620004ed565b505050620002c4620002be620002cf60201b60201c565b620002d3565b6001600855620005b9565b3390565b600780546001600160a01b038381166001600160a01b0319831681179093556040519116919082907f8be0079c531659141344cd1fd0a4f28419497f9722a3daafe3b4186f6b6457e090600090a35050565b82805482825590600052602060002090810192821562000370579160200282015b828111156200037057825182906200035f9082620004ed565b509160200191906001019062000346565b506200037e929150620003ce565b5090565b828054828255906000526020600020908101928215620003c0579160200282015b82811115620003c0578251825591602001919060010190620003a3565b506200037e929150620003ef565b808211156200037e576000620003e5828262000406565b50600101620003ce565b5b808211156200037e5760008155600101620003f0565b50805462000414906200045e565b6000825580601f1062000425575050565b601f016020900490600052602060002090810190620004459190620003ef565b50565b634e487b7160e01b600052604160045260246000fd5b600181811c908216806200047357607f821691505b6020821081036200049457634e487b7160e01b600052602260045260246000fd5b50919050565b601f821115620004e857600081815260208120601f850160051c81016020861015620004c35750805b601f850160051c820191505b81811015620004e457828155600101620004cf565b5050505b505050565b81516001600160401b0381111562000509576200050962000448565b62000521816200051a84546200045e565b846200049a565b602080601f831160018114620005595760008415620005405750858301515b600019600386901b1c1916600185901b178555620004e4565b600085815260208120601f198616915b828110156200058a5788860151825594840194600190910190840162000569565b5085821015620005a95787850151600019600388901b60f8161c191681555b5050505050600190811b01905550565b6137e580620005c96000396000f3fe60806040526004361061012a5760003560e01c806370a08231116100ab578063a22cb4651161006f578063a22cb4651461031e578063b88d4fde1461033e578063c87b56dd1461035e578063e985e9c51461037e578063efab35cb1461039e578063f2fde38b146103be57600080fd5b806370a0823114610289578063715018a6146102a9578063800ce0c5146102be5780638da5cb5b146102eb57806395d89b411461030957600080fd5b80631249c58b116100f25780631249c58b146101f357806323b872dd146101fb578063282946401461021b57806342842e0e146102495780636352211e1461026957600080fd5b806301ffc9a71461012f57806306fdde0314610164578063081812fc14610186578063095ea7b3146101be57806311f5a1d4146101e0575b600080fd5b34801561013b57600080fd5b5061014f61014a3660046127dd565b6103de565b60405190151581526020015b60405180910390f35b34801561017057600080fd5b506101796103ef565b60405161015b9190612851565b34801561019257600080fd5b506101a66101a1366004612864565b610481565b6040516001600160a01b03909116815260200161015b565b3480156101ca57600080fd5b506101de6101d9366004612899565b6104a8565b005b6101de6101ee3660046128c3565b6105c2565b6101de610c2b565b34801561020757600080fd5b506101de6102163660046128e5565b611031565b34801561022757600080fd5b5061023b610236366004612921565b611062565b60405190815260200161015b565b34801561025557600080fd5b506101de6102643660046128e5565b6110ca565b34801561027557600080fd5b506101a6610284366004612864565b6110e5565b34801561029557600080fd5b5061023b6102a436600461294d565b611145565b3480156102b557600080fd5b506101de6111cb565b3480156102ca57600080fd5b506102de6102d9366004612aeb565b6111dd565b60405161015b9190612c15565b3480156102f757600080fd5b506007546001600160a01b03166101a6565b34801561031557600080fd5b5061017961140f565b34801561032a57600080fd5b506101de610339366004612d62565b61141e565b34801561034a57600080fd5b506101de610359366004612d95565b611429565b34801561036a57600080fd5b50610179610379366004612864565b611461565b34801561038a57600080fd5b5061014f610399366004612e11565b6114e9565b3480156103aa57600080fd5b506101796103b9366004612e3b565b611517565b3480156103ca57600080fd5b506101de6103d936600461294d565b611545565b60006103e9826115be565b92915050565b6060600080546103fe90612ec3565b80601f016020809104026020016040519081016040528092919081815260200182805461042a90612ec3565b80156104775780601f1061044c57610100808354040283529160200191610477565b820191906000526020600020905b81548152906001019060200180831161045a57829003601f168201915b5050505050905090565b600061048c8261160e565b506000908152600460205260409020546001600160a01b031690565b60006104b3826110e5565b9050806001600160a01b0316836001600160a01b0316036105255760405162461bcd60e51b815260206004820152602160248201527f4552433732313a20617070726f76616c20746f2063757272656e74206f776e656044820152603960f91b60648201526084015b60405180910390fd5b336001600160a01b0382161480610541575061054181336114e9565b6105b35760405162461bcd60e51b815260206004820152603d60248201527f4552433732313a20617070726f76652063616c6c6572206973206e6f7420746f60448201527f6b656e206f776e6572206f7220617070726f76656420666f7220616c6c000000606482015260840161051c565b6105bd838361166d565b505050565b6105ca6116db565b6000828152600f602052604090205460ff166106205760405162461bcd60e51b815260206004820152601560248201527411985d1a195c88191bd95cc81b9bdd08195e1a5cdd605a1b604482015260640161051c565b6000818152600f602052604090205460ff166106765760405162461bcd60e51b8152602060048201526015602482015274135bdd1a195c88191bd95cc81b9bdd08195e1a5cdd605a1b604482015260640161051c565b600d543410156106c85760405162461bcd60e51b815260206004820152601d60248201527f496e73756666696369656e742066756e6420666f72206d696e74696e67000000604482015260640161051c565b60408051600280825260608201909252600091816020015b60608152602001906001900390816106e05750506000848152600e6020526040902060060180549192509061071490612ec3565b80601f016020809104026020016040519081016040528092919081815260200182805461074090612ec3565b801561078d5780601f106107625761010080835404028352916020019161078d565b820191906000526020600020905b81548152906001019060200180831161077057829003601f168201915b5050505050816000815181106107a5576107a5612efd565b6020026020010181905250600e600083815260200190815260200160002060040160020180546107d490612ec3565b80601f016020809104026020016040519081016040528092919081815260200182805461080090612ec3565b801561084d5780601f106108225761010080835404028352916020019161084d565b820191906000526020600020905b81548152906001019060200180831161083057829003601f168201915b50505050508160018151811061086557610865612efd565b602090810291909101015260408051600280825260608201909252600091816020015b60608152602001906001900390816108885750506000858152600e602052604090206008018054919250906108bc90612ec3565b80601f01602080910402602001604051908101604052809291908181526020018280546108e890612ec3565b80156109355780601f1061090a57610100808354040283529160200191610935565b820191906000526020600020905b81548152906001019060200180831161091857829003601f168201915b50505050508160008151811061094d5761094d612efd565b6020026020010181905250600e6000848152602001908152602001600020600401600401805461097c90612ec3565b80601f01602080910402602001604051908101604052809291908181526020018280546109a890612ec3565b80156109f55780601f106109ca576101008083540402835291602001916109f5565b820191906000526020600020905b8154815290600101906020018083116109d857829003601f168201915b505050505081600181518110610a0d57610a0d612efd565b60200260200101819052506000610a778383600b805480602002602001604051908101604052809291908181526020018280548015610a6b57602002820191906000526020600020905b815481526020019060010190808311610a57575b505050505060016111dd565b905080600e600083600001516001610a8f9190612f29565b8152602080820192909252604090810160002083518155918301516001830180546001600160a01b0319166001600160a01b039092169190911790558201516002820155606082015160038201556080820151805160048301908190610af59082612f8a565b5060208201516001820190610b0a9082612f8a565b5060408201516002820190610b1f9082612f8a565b5060608201516003820190610b349082612f8a565b5060808201516004820190610b499082612f8a565b5060a08201516005820190610b5e9082612f8a565b5060c08201516006820190610b739082612f8a565b5060e0820151600782015561010082015160088201805460ff19169115159190911790556101208201518051610bb39160098401916020909101906126d5565b5050835160019350600f925060009150610bcd9084612f29565b815260208101919091526040016000908120805460ff191692151592909217909155600c805491610bfd8361304a565b90915550508051610c1a903390610c15906001612f29565b611734565b505050610c276001600855565b5050565b610c336116db565b600d54341015610c855760405162461bcd60e51b815260206004820152601d60248201527f496e73756666696369656e742066756e6420666f72206d696e74696e67000000604482015260640161051c565b6000610e866009805480602002602001604051908101604052809291908181526020016000905b82821015610d58578382906000526020600020018054610ccb90612ec3565b80601f0160208091040260200160405190810160405280929190818152602001828054610cf790612ec3565b8015610d445780601f10610d1957610100808354040283529160200191610d44565b820191906000526020600020905b815481529060010190602001808311610d2757829003601f168201915b505050505081526020019060010190610cac565b50505050600a805480602002602001604051908101604052809291908181526020016000905b82821015610e2a578382906000526020600020018054610d9d90612ec3565b80601f0160208091040260200160405190810160405280929190818152602001828054610dc990612ec3565b8015610e165780601f10610deb57610100808354040283529160200191610e16565b820191906000526020600020905b815481529060010190602001808311610df957829003601f168201915b505050505081526020019060010190610d7e565b50505050600b805480602002602001604051908101604052809291908181526020018280548015610e7a57602002820191906000526020600020905b815481526020019060010190808311610e66575b505050505060006111dd565b905080600e600083600001516001610e9e9190612f29565b8152602080820192909252604090810160002083518155918301516001830180546001600160a01b0319166001600160a01b039092169190911790558201516002820155606082015160038201556080820151805160048301908190610f049082612f8a565b5060208201516001820190610f199082612f8a565b5060408201516002820190610f2e9082612f8a565b5060608201516003820190610f439082612f8a565b5060808201516004820190610f589082612f8a565b5060a08201516005820190610f6d9082612f8a565b5060c08201516006820190610f829082612f8a565b5060e0820151600782015561010082015160088201805460ff19169115159190911790556101208201518051610fc29160098401916020909101906126d5565b5050835160019350600f925060009150610fdc9084612f29565b815260208101919091526040016000908120805460ff191692151592909217909155600c80549161100c8361304a565b90915550508051611024903390610c15906001612f29565b5061102f6001600855565b565b61103b338261174e565b6110575760405162461bcd60e51b815260040161051c90613063565b6105bd8383836117ac565b604080514260208201526bffffffffffffffffffffffff193360601b16918101919091526054810183905260748101829052600090819085906094016040516020818303038152906040528051906020012060001c6110c191906130c6565b95945050505050565b6105bd83838360405180602001604052806000815250611429565b6000818152600260205260408120546001600160a01b0316806103e95760405162461bcd60e51b8152602060048201526018602482015277115490cdcc8c4e881a5b9d985b1a59081d1bdad95b88125160421b604482015260640161051c565b60006001600160a01b0382166111af5760405162461bcd60e51b815260206004820152602960248201527f4552433732313a2061646472657373207a65726f206973206e6f7420612076616044820152683634b21037bbb732b960b91b606482015260840161051c565b506001600160a01b031660009081526003602052604090205490565b6111d361191d565b61102f6000611977565b6111e5612720565b6103e8600c5460016111f79190612f29565b11156112455760405162461bcd60e51b815260206004820152601f60248201527f4f7574206f6620746f6b656e732c20636865636b206261636b206c6174657200604482015260640161051c565b600c54611253906001612f29565b8152336020820152600d54604082015261126b6119c9565b606082015261127861275d565b61128061140f565b825161128b906119e4565b60405160200161129c9291906130f6565b60408051601f198184030181529190528152826112d15760405180606001604052806030815260200161373d603091396112eb565b60405180608001604052806043815260200161376d604391395b602082015285518690611307906113006119c9565b6000611062565b8151811061131757611317612efd565b602002602001015181604001819052508461133586516113006119c9565b8151811061134557611345612efd565b602002602001015181608001819052508361136385516113006119c9565b8151811061137357611373612efd565b60200260200101518160e00181815250506113a161139c6101696113956119c9565b8551611062565b6119e4565b60a082015281516113bb9061139c90610169904290611062565b60c0820181905260a082015182516113d39290611517565b6040516020016113e39190613133565b60408051601f19818403018152919052606082015282151561010082015260808201525b949350505050565b6060600180546103fe90612ec3565b610c27338383611a77565b611433338361174e565b61144f5760405162461bcd60e51b815260040161051c90613063565b61145b84848484611b45565b50505050565b6000818152600260205260409020546060906001600160a01b03166114e05760405162461bcd60e51b815260206004820152602f60248201527f4552433732314d657461646174613a2055524920717565727920666f72206e6f60448201526e3732bc34b9ba32b73a103a37b5b2b760891b606482015260840161051c565b6103e982611b78565b6001600160a01b03918216600090815260056020908152604080832093909416825291909152205460ff1690565b606061140784848460405160200161153193929190613178565b604051602081830303815290604052612102565b61154d61191d565b6001600160a01b0381166115b25760405162461bcd60e51b815260206004820152602660248201527f4f776e61626c653a206e6577206f776e657220697320746865207a65726f206160448201526564647265737360d01b606482015260840161051c565b6115bb81611977565b50565b60006001600160e01b031982166380ac58cd60e01b14806115ef57506001600160e01b03198216635b5e139f60e01b145b806103e957506301ffc9a760e01b6001600160e01b03198316146103e9565b6000818152600260205260409020546001600160a01b03166115bb5760405162461bcd60e51b8152602060048201526018602482015277115490cdcc8c4e881a5b9d985b1a59081d1bdad95b88125160421b604482015260640161051c565b600081815260046020526040902080546001600160a01b0319166001600160a01b03841690811790915581906116a2826110e5565b6001600160a01b03167f8c5be1e5ebec7d5bd14f71427d1e84f3dd0314c0f7b2291e5b200ac8c7c3b92560405160405180910390a45050565b60026008540361172d5760405162461bcd60e51b815260206004820152601f60248201527f5265656e7472616e637947756172643a207265656e7472616e742063616c6c00604482015260640161051c565b6002600855565b610c27828260405180602001604052806000815250612269565b60008061175a836110e5565b9050806001600160a01b0316846001600160a01b03161480611781575061178181856114e9565b806114075750836001600160a01b031661179a84610481565b6001600160a01b031614949350505050565b826001600160a01b03166117bf826110e5565b6001600160a01b0316146117e55760405162461bcd60e51b815260040161051c9061331e565b6001600160a01b0382166118475760405162461bcd60e51b8152602060048201526024808201527f4552433732313a207472616e7366657220746f20746865207a65726f206164646044820152637265737360e01b606482015260840161051c565b611854838383600161229c565b826001600160a01b0316611867826110e5565b6001600160a01b03161461188d5760405162461bcd60e51b815260040161051c9061331e565b600081815260046020908152604080832080546001600160a01b03199081169091556001600160a01b0387811680865260038552838620805460001901905590871680865283862080546001019055868652600290945282852080549092168417909155905184937fddf252ad1be2c89b69c2b068fc378daa952ba7f163c4a11628f55a4df523b3ef91a4505050565b6007546001600160a01b0316331461102f5760405162461bcd60e51b815260206004820181905260248201527f4f776e61626c653a2063616c6c6572206973206e6f7420746865206f776e6572604482015260640161051c565b600780546001600160a01b038381166001600160a01b0319831681179093556040519116919082907f8be0079c531659141344cd1fd0a4f28419497f9722a3daafe3b4186f6b6457e090600090a35050565b6000806119d8426103e8613363565b6103e9906103e8612f29565b606060006119f183612324565b600101905060008167ffffffffffffffff811115611a1157611a11612968565b6040519080825280601f01601f191660200182016040528015611a3b576020820181803683370190505b5090508181016020015b600019016f181899199a1a9b1b9c1cb0b131b232b360811b600a86061a8153600a8504945084611a4557509392505050565b816001600160a01b0316836001600160a01b031603611ad85760405162461bcd60e51b815260206004820152601960248201527f4552433732313a20617070726f766520746f2063616c6c657200000000000000604482015260640161051c565b6001600160a01b03838116600081815260056020908152604080832094871680845294825291829020805460ff191686151590811790915591519182527f17307eab39ab6107e8899845ad3d59bd9653f200f220920489ca2b5937696c31910160405180910390a3505050565b611b508484846117ac565b611b5c848484846123fc565b61145b5760405162461bcd60e51b815260040161051c9061337a565b6000818152600e60209081526040808320815160a0810183528154815260018201546001600160a01b03169381019390935260028101548383015260038101546060848101919091528251610140810190935260048201805491959493608085019290919082908290611bea90612ec3565b80601f0160208091040260200160405190810160405280929190818152602001828054611c1690612ec3565b8015611c635780601f10611c3857610100808354040283529160200191611c63565b820191906000526020600020905b815481529060010190602001808311611c4657829003601f168201915b50505050508152602001600182018054611c7c90612ec3565b80601f0160208091040260200160405190810160405280929190818152602001828054611ca890612ec3565b8015611cf55780601f10611cca57610100808354040283529160200191611cf5565b820191906000526020600020905b815481529060010190602001808311611cd857829003601f168201915b50505050508152602001600282018054611d0e90612ec3565b80601f0160208091040260200160405190810160405280929190818152602001828054611d3a90612ec3565b8015611d875780601f10611d5c57610100808354040283529160200191611d87565b820191906000526020600020905b815481529060010190602001808311611d6a57829003601f168201915b50505050508152602001600382018054611da090612ec3565b80601f0160208091040260200160405190810160405280929190818152602001828054611dcc90612ec3565b8015611e195780601f10611dee57610100808354040283529160200191611e19565b820191906000526020600020905b815481529060010190602001808311611dfc57829003601f168201915b50505050508152602001600482018054611e3290612ec3565b80601f0160208091040260200160405190810160405280929190818152602001828054611e5e90612ec3565b8015611eab5780601f10611e8057610100808354040283529160200191611eab565b820191906000526020600020905b815481529060010190602001808311611e8e57829003601f168201915b50505050508152602001600582018054611ec490612ec3565b80601f0160208091040260200160405190810160405280929190818152602001828054611ef090612ec3565b8015611f3d5780601f10611f1257610100808354040283529160200191611f3d565b820191906000526020600020905b815481529060010190602001808311611f2057829003601f168201915b50505050508152602001600682018054611f5690612ec3565b80601f0160208091040260200160405190810160405280929190818152602001828054611f8290612ec3565b8015611fcf5780601f10611fa457610100808354040283529160200191611fcf565b820191906000526020600020905b815481529060010190602001808311611fb257829003601f168201915b50505050508152602001600782015481526020016008820160009054906101000a900460ff161515151581526020016009820180548060200260200160405190810160405280929190818152602001828054801561204c57602002820191906000526020600020905b815481526020019060010190808311612038575b50505050508152505081525050905060006120656119c9565b9050600061208d836080015160800151846080015160400151856080015160e00151856124fa565b90506120d961209f84600001516119e4565b6080850151805160209091015160408701516120ba906119e4565b87608001516060015186604051602001611531969594939291906133cc565b6040516020016120e991906134ee565b6040516020818303038152906040529350505050919050565b6060815160000361212157505060408051602081019091526000815290565b60006040518060600160405280604081526020016136fd60409139905060006003845160026121509190612f29565b61215a9190613533565b612165906004613363565b90506000612174826020612f29565b67ffffffffffffffff81111561218c5761218c612968565b6040519080825280601f01601f1916602001820160405280156121b6576020820181803683370190505b509050818152600183018586518101602084015b818310156122245760039283018051603f601282901c811687015160f890811b8552600c83901c8216880151811b6001860152600683901c8216880151811b60028601529116860151901b938201939093526004016121ca565b60038951066001811461223e576002811461224f5761225b565b613d3d60f01b60011983015261225b565b603d60f81b6000198301525b509398975050505050505050565b612273838361253c565b61228060008484846123fc565b6105bd5760405162461bcd60e51b815260040161051c9061337a565b600181111561145b576001600160a01b038416156122e2576001600160a01b038416600090815260036020526040812080548392906122dc908490613547565b90915550505b6001600160a01b0383161561145b576001600160a01b03831660009081526003602052604081208054839290612319908490612f29565b909155505050505050565b60008072184f03e93ff9f4daa797ed6e38ed64bf6a1f0160401b83106123635772184f03e93ff9f4daa797ed6e38ed64bf6a1f0160401b830492506040015b6d04ee2d6d415b85acef8100000000831061238f576d04ee2d6d415b85acef8100000000830492506020015b662386f26fc1000083106123ad57662386f26fc10000830492506010015b6305f5e10083106123c5576305f5e100830492506008015b61271083106123d957612710830492506004015b606483106123eb576064830492506002015b600a83106103e95760010192915050565b60006001600160a01b0384163b156124f257604051630a85bd0160e11b81526001600160a01b0385169063150b7a029061244090339089908890889060040161355a565b6020604051808303816000875af192505050801561247b575060408051601f3d908101601f1916820190925261247891810190613597565b60015b6124d8573d8080156124a9576040519150601f19603f3d011682016040523d82523d6000602084013e6124ae565b606091505b5080516000036124d05760405162461bcd60e51b815260040161051c9061337a565b805181602001fd5b6001600160e01b031916630a85bd0160e11b149050611407565b506001611407565b60608484612507856119e4565b612510856119e4565b60405160200161252394939291906135b4565b6040516020818303038152906040529050949350505050565b6001600160a01b0382166125925760405162461bcd60e51b815260206004820181905260248201527f4552433732313a206d696e7420746f20746865207a65726f2061646472657373604482015260640161051c565b6000818152600260205260409020546001600160a01b0316156125f75760405162461bcd60e51b815260206004820152601c60248201527f4552433732313a20746f6b656e20616c7265616479206d696e74656400000000604482015260640161051c565b61260560008383600161229c565b6000818152600260205260409020546001600160a01b03161561266a5760405162461bcd60e51b815260206004820152601c60248201527f4552433732313a20746f6b656e20616c7265616479206d696e74656400000000604482015260640161051c565b6001600160a01b038216600081815260036020908152604080832080546001019055848352600290915280822080546001600160a01b0319168417905551839291907fddf252ad1be2c89b69c2b068fc378daa952ba7f163c4a11628f55a4df523b3ef908290a45050565b828054828255906000526020600020908101928215612710579160200282015b828111156127105782518255916020019190600101906126f5565b5061271c9291506127b2565b5090565b6040518060a001604052806000815260200160006001600160a01b03168152602001600081526020016000815260200161275861275d565b905290565b6040518061014001604052806060815260200160608152602001606081526020016060815260200160608152602001606081526020016060815260200160008152602001600015158152602001606081525090565b5b8082111561271c57600081556001016127b3565b6001600160e01b0319811681146115bb57600080fd5b6000602082840312156127ef57600080fd5b81356127fa816127c7565b9392505050565b60005b8381101561281c578181015183820152602001612804565b50506000910152565b6000815180845261283d816020860160208601612801565b601f01601f19169290920160200192915050565b6020815260006127fa6020830184612825565b60006020828403121561287657600080fd5b5035919050565b80356001600160a01b038116811461289457600080fd5b919050565b600080604083850312156128ac57600080fd5b6128b58361287d565b946020939093013593505050565b600080604083850312156128d657600080fd5b50508035926020909101359150565b6000806000606084860312156128fa57600080fd5b6129038461287d565b92506129116020850161287d565b9150604084013590509250925092565b60008060006060848603121561293657600080fd5b505081359360208301359350604090920135919050565b60006020828403121561295f57600080fd5b6127fa8261287d565b634e487b7160e01b600052604160045260246000fd5b604051601f8201601f1916810167ffffffffffffffff811182821017156129a7576129a7612968565b604052919050565b600067ffffffffffffffff8211156129c9576129c9612968565b5060051b60200190565b600067ffffffffffffffff8311156129ed576129ed612968565b612a00601f8401601f191660200161297e565b9050828152838383011115612a1457600080fd5b828260208301376000602084830101529392505050565b600082601f830112612a3c57600080fd5b6127fa838335602085016129d3565b600082601f830112612a5c57600080fd5b81356020612a71612a6c836129af565b61297e565b82815260059290921b84018101918181019086841115612a9057600080fd5b8286015b84811015612ad057803567ffffffffffffffff811115612ab45760008081fd5b612ac28986838b0101612a2b565b845250918301918301612a94565b509695505050505050565b8035801515811461289457600080fd5b60008060008060808587031215612b0157600080fd5b843567ffffffffffffffff80821115612b1957600080fd5b612b2588838901612a4b565b9550602091508187013581811115612b3c57600080fd5b612b4889828a01612a4b565b955050604087013581811115612b5d57600080fd5b87019050601f81018813612b7057600080fd5b8035612b7e612a6c826129af565b81815260059190911b8201830190838101908a831115612b9d57600080fd5b928401925b82841015612bbb57833582529284019290840190612ba2565b8096505050505050612bcf60608601612adb565b905092959194509250565b600081518084526020808501945080840160005b83811015612c0a57815187529582019590820190600101612bee565b509495945050505050565b602081528151602082015260018060a01b03602083015116604082015260408201516060820152606082015160808201526000608083015160a08084015280516101408060c0860152612c6c610200860183612825565b9150602083015160bf19808785030160e0880152612c8a8483612825565b935060408501519150610100818886030181890152612ca98584612825565b9450606086015192506101208289870301818a0152612cc88685612825565b9550608087015193508289870301858a0152612ce48685612825565b955060a0870151945082898703016101608a0152612d028686612825565b955060c0870151945082898703016101808a0152612d208686612825565b955060e08701516101a08a0152818701519450612d426101c08a018615159052565b808701519650505080878503016101e08801525050506110c18183612bda565b60008060408385031215612d7557600080fd5b612d7e8361287d565b9150612d8c60208401612adb565b90509250929050565b60008060008060808587031215612dab57600080fd5b612db48561287d565b9350612dc26020860161287d565b925060408501359150606085013567ffffffffffffffff811115612de557600080fd5b8501601f81018713612df657600080fd5b612e05878235602084016129d3565b91505092959194509250565b60008060408385031215612e2457600080fd5b612e2d8361287d565b9150612d8c6020840161287d565b600080600060608486031215612e5057600080fd5b833567ffffffffffffffff80821115612e6857600080fd5b612e7487838801612a2b565b94506020860135915080821115612e8a57600080fd5b612e9687838801612a2b565b93506040860135915080821115612eac57600080fd5b50612eb986828701612a2b565b9150509250925092565b600181811c90821680612ed757607f821691505b602082108103612ef757634e487b7160e01b600052602260045260246000fd5b50919050565b634e487b7160e01b600052603260045260246000fd5b634e487b7160e01b600052601160045260246000fd5b808201808211156103e9576103e9612f13565b601f8211156105bd57600081815260208120601f850160051c81016020861015612f635750805b601f850160051c820191505b81811015612f8257828155600101612f6f565b505050505050565b815167ffffffffffffffff811115612fa457612fa4612968565b612fb881612fb28454612ec3565b84612f3c565b602080601f831160018114612fed5760008415612fd55750858301515b600019600386901b1c1916600185901b178555612f82565b600085815260208120601f198616915b8281101561301c57888601518255948401946001909101908401612ffd565b508582101561303a5787850151600019600388901b60f8161c191681555b5050505050600190811b01905550565b60006001820161305c5761305c612f13565b5060010190565b6020808252602d908201527f4552433732313a2063616c6c6572206973206e6f7420746f6b656e206f776e6560408201526c1c881bdc88185c1c1c9bdd9959609a1b606082015260800190565b634e487b7160e01b600052601260045260246000fd5b6000826130d5576130d56130b0565b500690565b600081516130ec818560208601612801565b9290920192915050565b60008351613108818460208801612801565b61202360f01b9083019081528351613127816002840160208801612801565b01600201949350505050565b7f646174613a696d6167652f7376672b786d6c3b6261736536342c00000000000081526000825161316b81601a850160208701612801565b91909101601a0192915050565b7f3c7376672077696474683d2235303022206865696768743d223530302220786d81527f6c6e733d22687474703a2f2f7777772e77332e6f72672f323030302f737667226020820152601f60f91b60408201527f3c72656374206865696768743d22353030222077696474683d223530302220666041820152680d2d8d87a44d0e6d8560bb1b60618201526000845161321881606a850160208901612801565b6d16101a98129610191a929491179f60911b606a918401918201527f3c7465787420783d223530252220793d223530252220646f6d696e616e742d6260788201527f6173656c696e653d226d6964646c65222066696c6c3d2268736c280000000000609882015284516132928160b3840160208901612801565b6133136133016132ee6132e860b3858701017f2c20313030252c20383025292220746578742d616e63686f723d226d6964646c8152713291103337b73a16b9b4bd329e911a18911f60711b602082015260320190565b886130da565b661e17ba32bc3a1f60c91b815260070190565b651e17b9bb339f60d11b815260060190565b979650505050505050565b60208082526025908201527f4552433732313a207472616e736665722066726f6d20696e636f72726563742060408201526437bbb732b960d91b606082015260800190565b80820281158282048414176103e9576103e9612f13565b60208082526032908201527f4552433732313a207472616e7366657220746f206e6f6e20455243373231526560408201527131b2b4bb32b91034b6b83632b6b2b73a32b960711b606082015260800190565b663d9134b2111d1160c91b815286516000906133ef816007850160208c01612801565b691116113730b6b2911d1160b11b6007918401918201528751613419816011840160208c01612801565b701116113232b9b1b934b83a34b7b7111d1160791b60119290910191820152865161344b816022840160208b01612801565b6a111611383934b1b2911d1160a91b60229290910191820152855161347781602d840160208a01612801565b6a11161134b6b0b3b2911d1160a91b602d929091019182015284516134a3816038840160208901612801565b6134e06134d36134cd6038848601016e11161130ba3a3934b13aba32b9911d60891b8152600f0190565b876130da565b607d60f81b815260010190565b9a9950505050505050505050565b7f646174613a6170706c69636174696f6e2f6a736f6e3b6261736536342c00000081526000825161352681601d850160208701612801565b91909101601d0192915050565b600082613542576135426130b0565b500490565b818103818111156103e9576103e9612f13565b6001600160a01b038581168252841660208201526040810183905260806060820181905260009061358d90830184612825565b9695505050505050565b6000602082840312156135a957600080fd5b81516127fa816127c7565b7f5b7b2274726169745f74797065223a22456e7669726f6e6d656e74222c227661815265363ab2911d1160d11b6020820152600085516135fb816026850160208a01612801565b62089f4b60ea1b60269184019182018190527f7b2274726169745f74797065223a22576561706f6e222c2276616c7565223a2260298301528651613646816049850160208b01612801565b604992019182018190527f7b2274726169745f74797065223a22526172697479222c2276616c7565223a22604c830152855161368981606c850160208a01612801565b606c9201918201527f7b22646973706c61795f74797065223a2264617465222c2274726169745f7479606f8201527f7065223a2243726561746564222c2276616c7565223a22000000000000000000608f8201526133136136ed60a68301866130da565b62227d5d60e81b81526003019056fe4142434445464748494a4b4c4d4e4f505152535455565758595a6162636465666768696a6b6c6d6e6f707172737475767778797a303132333435363738392b2f54686973204e46542069732072616e646f6d6c792067656e657261746564206279206f757220616c676f726974686d2e54686973204e465420696e686572697465642069747320617474726962757465732066726f6d206f75722072616e646f6d6c792067656e657261746564204e4654732ea2646970667358221220bffe224ff549b8299cafd43fad2a9a7aa7a91a64ae85cb289c4ffd449a8054ec64736f6c63430008110033",
  "linkReferences": {},
  "deployedLinkReferences": {}
}