{
  "_format": "hh-sol-artifact-1",
  "contractName": "Breeder",
  "sourceName": "contracts/Breeder.sol",
  "abi": [
    {
      "inputs": [],
      "stateMutability": "nonpayable",
      "type": "constructor"
    },
    {
      "anonymous": false,
      "inputs": [
        {
          "indexed": true,
          "internalType": "address",
          "name": "owner",
          "type": "address"
        },
        {
          "indexed": true,
          "internalType": "address",
          "name": "approved",
          "type": "address"
        },
        {
          "indexed": true,
          "internalType": "uint256",
          "name": "tokenId",
          "type": "uint256"
        }
      ],
      "name": "Approval",
      "type": "event"
    },
    {
      "anonymous": false,
      "inputs": [
        {
          "indexed": true,
          "internalType": "address",
          "name": "owner",
          "type": "address"
        },
        {
          "indexed": true,
          "internalType": "address",
          "name": "operator",
          "type": "address"
        },
        {
          "indexed": false,
          "internalType": "bool",
          "name": "approved",
          "type": "bool"
        }
      ],
      "name": "ApprovalForAll",
      "type": "event"
    },
    {
      "anonymous": false,
      "inputs": [
        {
          "indexed": false,
          "internalType": "uint256",
          "name": "_fromTokenId",
          "type": "uint256"
        },
        {
          "indexed": false,
          "internalType": "uint256",
          "name": "_toTokenId",
          "type": "uint256"
        }
      ],
      "name": "BatchMetadataUpdate",
      "type": "event"
    },
    {
      "anonymous": false,
      "inputs": [
        {
          "indexed": false,
          "internalType": "uint256",
          "name": "_tokenId",
          "type": "uint256"
        }
      ],
      "name": "MetadataUpdate",
      "type": "event"
    },
    {
      "anonymous": false,
      "inputs": [
        {
          "indexed": true,
          "internalType": "address",
          "name": "previousOwner",
          "type": "address"
        },
        {
          "indexed": true,
          "internalType": "address",
          "name": "newOwner",
          "type": "address"
        }
      ],
      "name": "OwnershipTransferred",
      "type": "event"
    },
    {
      "anonymous": false,
      "inputs": [
        {
          "indexed": true,
          "internalType": "address",
          "name": "from",
          "type": "address"
        },
        {
          "indexed": true,
          "internalType": "address",
          "name": "to",
          "type": "address"
        },
        {
          "indexed": true,
          "internalType": "uint256",
          "name": "tokenId",
          "type": "uint256"
        }
      ],
      "name": "Transfer",
      "type": "event"
    },
    {
      "inputs": [
        {
          "internalType": "address",
          "name": "to",
          "type": "address"
        },
        {
          "internalType": "uint256",
          "name": "tokenId",
          "type": "uint256"
        }
      ],
      "name": "approve",
      "outputs": [],
      "stateMutability": "nonpayable",
      "type": "function"
    },
    {
      "inputs": [
        {
          "internalType": "address",
          "name": "owner",
          "type": "address"
        }
      ],
      "name": "balanceOf",
      "outputs": [
        {
          "internalType": "uint256",
          "name": "",
          "type": "uint256"
        }
      ],
      "stateMutability": "view",
      "type": "function"
    },
    {
      "inputs": [
        {
          "internalType": "uint256",
          "name": "_fatherTokenId",
          "type": "uint256"
        },
        {
          "internalType": "uint256",
          "name": "_motherTokenId",
          "type": "uint256"
        }
      ],
      "name": "breedNft",
      "outputs": [],
      "stateMutability": "payable",
      "type": "function"
    },
    {
      "inputs": [
        {
          "internalType": "string",
          "name": "bgHue",
          "type": "string"
        },
        {
          "internalType": "string",
          "name": "textHue",
          "type": "string"
        },
        {
          "internalType": "string",
          "name": "name",
          "type": "string"
        }
      ],
      "name": "buildImage",
      "outputs": [
        {
          "internalType": "string",
          "name": "",
          "type": "string"
        }
      ],
      "stateMutability": "pure",
      "type": "function"
    },
    {
      "inputs": [],
      "name": "getAllNfts",
      "outputs": [
        {
          "components": [
            {
              "internalType": "uint256",
              "name": "id",
              "type": "uint256"
            },
            {
              "internalType": "address",
              "name": "owner",
              "type": "address"
            },
            {
              "internalType": "uint256",
              "name": "mintCost",
              "type": "uint256"
            },
            {
              "internalType": "uint256",
              "name": "timestamp",
              "type": "uint256"
            },
            {
              "components": [
                {
                  "internalType": "string",
                  "name": "name",
                  "type": "string"
                },
                {
                  "internalType": "string",
                  "name": "description",
                  "type": "string"
                },
                {
                  "internalType": "string",
                  "name": "weapon",
                  "type": "string"
                },
                {
                  "internalType": "string",
                  "name": "image",
                  "type": "string"
                },
                {
                  "internalType": "string",
                  "name": "environment",
                  "type": "string"
                },
                {
                  "internalType": "string",
                  "name": "bgHue",
                  "type": "string"
                },
                {
                  "internalType": "string",
                  "name": "textHue",
                  "type": "string"
                },
                {
                  "internalType": "uint256",
                  "name": "rarity",
                  "type": "uint256"
                },
                {
                  "internalType": "bool",
                  "name": "breeded",
                  "type": "bool"
                },
                {
                  "internalType": "uint256[]",
                  "name": "parents",
                  "type": "uint256[]"
                }
              ],
              "internalType": "struct Breeder.TraitStruct",
              "name": "traits",
              "type": "tuple"
            }
          ],
          "internalType": "struct Breeder.MintStruct[]",
          "name": "Minted",
          "type": "tuple[]"
        }
      ],
      "stateMutability": "view",
      "type": "function"
    },
    {
      "inputs": [
        {
          "internalType": "uint256",
          "name": "tokenId",
          "type": "uint256"
        }
      ],
      "name": "getApproved",
      "outputs": [
        {
          "internalType": "address",
          "name": "",
          "type": "address"
        }
      ],
      "stateMutability": "view",
      "type": "function"
    },
    {
      "inputs": [],
      "name": "getBreededNfts",
      "outputs": [
        {
          "components": [
            {
              "internalType": "uint256",
              "name": "id",
              "type": "uint256"
            },
            {
              "internalType": "address",
              "name": "owner",
              "type": "address"
            },
            {
              "internalType": "uint256",
              "name": "mintCost",
              "type": "uint256"
            },
            {
              "internalType": "uint256",
              "name": "timestamp",
              "type": "uint256"
            },
            {
              "components": [
                {
                  "internalType": "string",
                  "name": "name",
                  "type": "string"
                },
                {
                  "internalType": "string",
                  "name": "description",
                  "type": "string"
                },
                {
                  "internalType": "string",
                  "name": "weapon",
                  "type": "string"
                },
                {
                  "internalType": "string",
                  "name": "image",
                  "type": "string"
                },
                {
                  "internalType": "string",
                  "name": "environment",
                  "type": "string"
                },
                {
                  "internalType": "string",
                  "name": "bgHue",
                  "type": "string"
                },
                {
                  "internalType": "string",
                  "name": "textHue",
                  "type": "string"
                },
                {
                  "internalType": "uint256",
                  "name": "rarity",
                  "type": "uint256"
                },
                {
                  "internalType": "bool",
                  "name": "breeded",
                  "type": "bool"
                },
                {
                  "internalType": "uint256[]",
                  "name": "parents",
                  "type": "uint256[]"
                }
              ],
              "internalType": "struct Breeder.TraitStruct",
              "name": "traits",
              "type": "tuple"
            }
          ],
          "internalType": "struct Breeder.MintStruct[]",
          "name": "Minted",
          "type": "tuple[]"
        }
      ],
      "stateMutability": "view",
      "type": "function"
    },
    {
      "inputs": [],
      "name": "getMintedNfts",
      "outputs": [
        {
          "components": [
            {
              "internalType": "uint256",
              "name": "id",
              "type": "uint256"
            },
            {
              "internalType": "address",
              "name": "owner",
              "type": "address"
            },
            {
              "internalType": "uint256",
              "name": "mintCost",
              "type": "uint256"
            },
            {
              "internalType": "uint256",
              "name": "timestamp",
              "type": "uint256"
            },
            {
              "components": [
                {
                  "internalType": "string",
                  "name": "name",
                  "type": "string"
                },
                {
                  "internalType": "string",
                  "name": "description",
                  "type": "string"
                },
                {
                  "internalType": "string",
                  "name": "weapon",
                  "type": "string"
                },
                {
                  "internalType": "string",
                  "name": "image",
                  "type": "string"
                },
                {
                  "internalType": "string",
                  "name": "environment",
                  "type": "string"
                },
                {
                  "internalType": "string",
                  "name": "bgHue",
                  "type": "string"
                },
                {
                  "internalType": "string",
                  "name": "textHue",
                  "type": "string"
                },
                {
                  "internalType": "uint256",
                  "name": "rarity",
                  "type": "uint256"
                },
                {
                  "internalType": "bool",
                  "name": "breeded",
                  "type": "bool"
                },
                {
                  "internalType": "uint256[]",
                  "name": "parents",
                  "type": "uint256[]"
                }
              ],
              "internalType": "struct Breeder.TraitStruct",
              "name": "traits",
              "type": "tuple"
            }
          ],
          "internalType": "struct Breeder.MintStruct[]",
          "name": "Minted",
          "type": "tuple[]"
        }
      ],
      "stateMutability": "view",
      "type": "function"
    },
    {
      "inputs": [],
      "name": "getMyNfts",
      "outputs": [
        {
          "components": [
            {
              "internalType": "uint256",
              "name": "id",
              "type": "uint256"
            },
            {
              "internalType": "address",
              "name": "owner",
              "type": "address"
            },
            {
              "internalType": "uint256",
              "name": "mintCost",
              "type": "uint256"
            },
            {
              "internalType": "uint256",
              "name": "timestamp",
              "type": "uint256"
            },
            {
              "components": [
                {
                  "internalType": "string",
                  "name": "name",
                  "type": "string"
                },
                {
                  "internalType": "string",
                  "name": "description",
                  "type": "string"
                },
                {
                  "internalType": "string",
                  "name": "weapon",
                  "type": "string"
                },
                {
                  "internalType": "string",
                  "name": "image",
                  "type": "string"
                },
                {
                  "internalType": "string",
                  "name": "environment",
                  "type": "string"
                },
                {
                  "internalType": "string",
                  "name": "bgHue",
                  "type": "string"
                },
                {
                  "internalType": "string",
                  "name": "textHue",
                  "type": "string"
                },
                {
                  "internalType": "uint256",
                  "name": "rarity",
                  "type": "uint256"
                },
                {
                  "internalType": "bool",
                  "name": "breeded",
                  "type": "bool"
                },
                {
                  "internalType": "uint256[]",
                  "name": "parents",
                  "type": "uint256[]"
                }
              ],
              "internalType": "struct Breeder.TraitStruct",
              "name": "traits",
              "type": "tuple"
            }
          ],
          "internalType": "struct Breeder.MintStruct[]",
          "name": "Minted",
          "type": "tuple[]"
        }
      ],
      "stateMutability": "view",
      "type": "function"
    },
    {
      "inputs": [
        {
          "internalType": "uint256",
          "name": "_tokenId",
          "type": "uint256"
        }
      ],
      "name": "getNft",
      "outputs": [
        {
          "components": [
            {
              "internalType": "uint256",
              "name": "id",
              "type": "uint256"
            },
            {
              "internalType": "address",
              "name": "owner",
              "type": "address"
            },
            {
              "internalType": "uint256",
              "name": "mintCost",
              "type": "uint256"
            },
            {
              "internalType": "uint256",
              "name": "timestamp",
              "type": "uint256"
            },
            {
              "components": [
                {
                  "internalType": "string",
                  "name": "name",
                  "type": "string"
                },
                {
                  "internalType": "string",
                  "name": "description",
                  "type": "string"
                },
                {
                  "internalType": "string",
                  "name": "weapon",
                  "type": "string"
                },
                {
                  "internalType": "string",
                  "name": "image",
                  "type": "string"
                },
                {
                  "internalType": "string",
                  "name": "environment",
                  "type": "string"
                },
                {
                  "internalType": "string",
                  "name": "bgHue",
                  "type": "string"
                },
                {
                  "internalType": "string",
                  "name": "textHue",
                  "type": "string"
                },
                {
                  "internalType": "uint256",
                  "name": "rarity",
                  "type": "uint256"
                },
                {
                  "internalType": "bool",
                  "name": "breeded",
                  "type": "bool"
                },
                {
                  "internalType": "uint256[]",
                  "name": "parents",
                  "type": "uint256[]"
                }
              ],
              "internalType": "struct Breeder.TraitStruct",
              "name": "traits",
              "type": "tuple"
            }
          ],
          "internalType": "struct Breeder.MintStruct",
          "name": "",
          "type": "tuple"
        }
      ],
      "stateMutability": "view",
      "type": "function"
    },
    {
      "inputs": [
        {
          "internalType": "uint256",
          "name": "_tokenId",
          "type": "uint256"
        }
      ],
      "name": "getParentsOf",
      "outputs": [
        {
          "components": [
            {
              "internalType": "uint256",
              "name": "id",
              "type": "uint256"
            },
            {
              "internalType": "address",
              "name": "owner",
              "type": "address"
            },
            {
              "internalType": "uint256",
              "name": "mintCost",
              "type": "uint256"
            },
            {
              "internalType": "uint256",
              "name": "timestamp",
              "type": "uint256"
            },
            {
              "components": [
                {
                  "internalType": "string",
                  "name": "name",
                  "type": "string"
                },
                {
                  "internalType": "string",
                  "name": "description",
                  "type": "string"
                },
                {
                  "internalType": "string",
                  "name": "weapon",
                  "type": "string"
                },
                {
                  "internalType": "string",
                  "name": "image",
                  "type": "string"
                },
                {
                  "internalType": "string",
                  "name": "environment",
                  "type": "string"
                },
                {
                  "internalType": "string",
                  "name": "bgHue",
                  "type": "string"
                },
                {
                  "internalType": "string",
                  "name": "textHue",
                  "type": "string"
                },
                {
                  "internalType": "uint256",
                  "name": "rarity",
                  "type": "uint256"
                },
                {
                  "internalType": "bool",
                  "name": "breeded",
                  "type": "bool"
                },
                {
                  "internalType": "uint256[]",
                  "name": "parents",
                  "type": "uint256[]"
                }
              ],
              "internalType": "struct Breeder.TraitStruct",
              "name": "traits",
              "type": "tuple"
            }
          ],
          "internalType": "struct Breeder.MintStruct[]",
          "name": "Minted",
          "type": "tuple[]"
        }
      ],
      "stateMutability": "view",
      "type": "function"
    },
    {
      "inputs": [
        {
          "internalType": "address",
          "name": "owner",
          "type": "address"
        },
        {
          "internalType": "address",
          "name": "operator",
          "type": "address"
        }
      ],
      "name": "isApprovedForAll",
      "outputs": [
        {
          "internalType": "bool",
          "name": "",
          "type": "bool"
        }
      ],
      "stateMutability": "view",
      "type": "function"
    },
    {
      "inputs": [],
      "name": "mint",
      "outputs": [],
      "stateMutability": "payable",
      "type": "function"
    },
    {
      "inputs": [],
      "name": "name",
      "outputs": [
        {
          "internalType": "string",
          "name": "",
          "type": "string"
        }
      ],
      "stateMutability": "view",
      "type": "function"
    },
    {
      "inputs": [],
      "name": "owner",
      "outputs": [
        {
          "internalType": "address",
          "name": "",
          "type": "address"
        }
      ],
      "stateMutability": "view",
      "type": "function"
    },
    {
      "inputs": [
        {
          "internalType": "uint256",
          "name": "tokenId",
          "type": "uint256"
        }
      ],
      "name": "ownerOf",
      "outputs": [
        {
          "internalType": "address",
          "name": "",
          "type": "address"
        }
      ],
      "stateMutability": "view",
      "type": "function"
    },
    {
      "inputs": [
        {
          "internalType": "uint256",
          "name": "_mod",
          "type": "uint256"
        },
        {
          "internalType": "uint256",
          "name": "_seed",
          "type": "uint256"
        },
        {
          "internalType": "uint256",
          "name": "_salt",
          "type": "uint256"
        }
      ],
      "name": "randomNum",
      "outputs": [
        {
          "internalType": "uint256",
          "name": "",
          "type": "uint256"
        }
      ],
      "stateMutability": "view",
      "type": "function"
    },
    {
      "inputs": [],
      "name": "renounceOwnership",
      "outputs": [],
      "stateMutability": "nonpayable",
      "type": "function"
    },
    {
      "inputs": [
        {
          "internalType": "address",
          "name": "from",
          "type": "address"
        },
        {
          "internalType": "address",
          "name": "to",
          "type": "address"
        },
        {
          "internalType": "uint256",
          "name": "tokenId",
          "type": "uint256"
        }
      ],
      "name": "safeTransferFrom",
      "outputs": [],
      "stateMutability": "nonpayable",
      "type": "function"
    },
    {
      "inputs": [
        {
          "internalType": "address",
          "name": "from",
          "type": "address"
        },
        {
          "internalType": "address",
          "name": "to",
          "type": "address"
        },
        {
          "internalType": "uint256",
          "name": "tokenId",
          "type": "uint256"
        },
        {
          "internalType": "bytes",
          "name": "data",
          "type": "bytes"
        }
      ],
      "name": "safeTransferFrom",
      "outputs": [],
      "stateMutability": "nonpayable",
      "type": "function"
    },
    {
      "inputs": [
        {
          "internalType": "address",
          "name": "operator",
          "type": "address"
        },
        {
          "internalType": "bool",
          "name": "approved",
          "type": "bool"
        }
      ],
      "name": "setApprovalForAll",
      "outputs": [],
      "stateMutability": "nonpayable",
      "type": "function"
    },
    {
      "inputs": [
        {
          "internalType": "bytes4",
          "name": "interfaceId",
          "type": "bytes4"
        }
      ],
      "name": "supportsInterface",
      "outputs": [
        {
          "internalType": "bool",
          "name": "",
          "type": "bool"
        }
      ],
      "stateMutability": "view",
      "type": "function"
    },
    {
      "inputs": [],
      "name": "symbol",
      "outputs": [
        {
          "internalType": "string",
          "name": "",
          "type": "string"
        }
      ],
      "stateMutability": "view",
      "type": "function"
    },
    {
      "inputs": [
        {
          "internalType": "uint256",
          "name": "_tokenId",
          "type": "uint256"
        }
      ],
      "name": "tokenURI",
      "outputs": [
        {
          "internalType": "string",
          "name": "",
          "type": "string"
        }
      ],
      "stateMutability": "view",
      "type": "function"
    },
    {
      "inputs": [
        {
          "internalType": "address",
          "name": "from",
          "type": "address"
        },
        {
          "internalType": "address",
          "name": "to",
          "type": "address"
        },
        {
          "internalType": "uint256",
          "name": "tokenId",
          "type": "uint256"
        }
      ],
      "name": "transferFrom",
      "outputs": [],
      "stateMutability": "nonpayable",
      "type": "function"
    },
    {
      "inputs": [
        {
          "internalType": "address",
          "name": "newOwner",
          "type": "address"
        }
      ],
      "name": "transferOwnership",
      "outputs": [],
      "stateMutability": "nonpayable",
      "type": "function"
    }
  ],
  "bytecode": "0x600561018081815264537469636b60d81b6101a05260809081526101c0828152644b6e69666560d81b6101e05260a05261020082815264426c61646560d81b6102205260c05260046102409081526321b63ab160e11b6102605260e052600261028090815261082f60f31b6102a052610100526102c08281526414dddbdc9960da1b6102e052610120526103009182526429b832b0b960d91b610320526101409190915261038060405260076103409081526612185b18995c9960ca1b6103605261016052620000d490600990600862000325565b5060408051610140810182526005610100820190815264537061636560d81b6101208301528152815180830183526003815262536b7960e81b60208281019190915280830191909152825180840184526007808252664465736572747360c81b82840152838501919091528351808501855290815266466f726573747360c81b81830152606083015282518084018452600a8082526947726173736c616e647360b01b8284015260808401919091528351808501855260098152684d6f756e7461696e7360b81b8184015260a08401528351808501855260068152654f6365616e7360d01b8184015260c08401528351808501909452600b84526a5261696e666f726573747360a81b9184019190915260e0820192909252620001fa9190600862000325565b5060408051600580825260c08201909252906020820160a080368337505081516200022d92600b92506020019062000382565b5066071afd498d0000600d553480156200024657600080fd5b506040518060400160405280600b81526020016a109c995959195c8813919560aa1b8152506040518060400160405280600381526020016210919560ea1b8152508160009081620002989190620004ed565b506001620002a78282620004ed565b505050620002c4620002be620002cf60201b60201c565b620002d3565b6001600855620005b9565b3390565b600780546001600160a01b038381166001600160a01b0319831681179093556040519116919082907f8be0079c531659141344cd1fd0a4f28419497f9722a3daafe3b4186f6b6457e090600090a35050565b82805482825590600052602060002090810192821562000370579160200282015b828111156200037057825182906200035f9082620004ed565b509160200191906001019062000346565b506200037e929150620003ce565b5090565b828054828255906000526020600020908101928215620003c0579160200282015b82811115620003c0578251825591602001919060010190620003a3565b506200037e929150620003ef565b808211156200037e576000620003e5828262000406565b50600101620003ce565b5b808211156200037e5760008155600101620003f0565b50805462000414906200045e565b6000825580601f1062000425575050565b601f016020900490600052602060002090810190620004459190620003ef565b50565b634e487b7160e01b600052604160045260246000fd5b600181811c908216806200047357607f821691505b6020821081036200049457634e487b7160e01b600052602260045260246000fd5b50919050565b601f821115620004e857600081815260208120601f850160051c81016020861015620004c35750805b601f850160051c820191505b81811015620004e457828155600101620004cf565b5050505b505050565b81516001600160401b0381111562000509576200050962000448565b62000521816200051a84546200045e565b846200049a565b602080601f831160018114620005595760008415620005405750858301515b600019600386901b1c1916600185901b178555620004e4565b600085815260208120601f198616915b828110156200058a5788860151825594840194600190910190840162000569565b5085821015620005a95787850151600019600388901b60f8161c191681555b5050505050600190811b01905550565b615cb280620005c96000396000f3fe6080604052600436106101815760003560e01c806370a08231116100d1578063b88d4fde1161008a578063e985e9c511610064578063e985e9c514610441578063efab35cb14610461578063f2fde38b14610481578063fc8a16a0146104a157600080fd5b8063b88d4fde146103ec578063c87b56dd1461040c578063d9ce81e51461042c57600080fd5b806370a082311461034f578063715018a61461036f578063732e8d73146103845780638da5cb5b1461039957806395d89b41146103b7578063a22cb465146103cc57600080fd5b806311f5a1d41161013e578063282946401161011857806328294640146102b457806341f63bfd146102e257806342842e0e1461030f5780636352211e1461032f57600080fd5b806311f5a1d4146102795780631249c58b1461028c57806323b872dd1461029457600080fd5b806301ffc9a714610186578063047b07bf146101bb57806305690ae2146101dd57806306fdde03146101fd578063081812fc1461021f578063095ea7b314610257575b600080fd5b34801561019257600080fd5b506101a66101a1366004614e07565b6104b6565b60405190151581526020015b60405180910390f35b3480156101c757600080fd5b506101d06104c7565b6040516101b29190614ffc565b3480156101e957600080fd5b506101d06101f836600461505e565b610b04565b34801561020957600080fd5b506102126111c2565b6040516101b29190615077565b34801561022b57600080fd5b5061023f61023a36600461505e565b611254565b6040516001600160a01b0390911681526020016101b2565b34801561026357600080fd5b506102776102723660046150a6565b61127b565b005b6102776102873660046150d0565b611395565b610277611c30565b3480156102a057600080fd5b506102776102af3660046150f2565b612006565b3480156102c057600080fd5b506102d46102cf36600461512e565b612037565b6040519081526020016101b2565b3480156102ee57600080fd5b506103026102fd36600461505e565b61209f565b6040516101b2919061515a565b34801561031b57600080fd5b5061027761032a3660046150f2565b61258a565b34801561033b57600080fd5b5061023f61034a36600461505e565b6125a5565b34801561035b57600080fd5b506102d461036a36600461516d565b612605565b34801561037b57600080fd5b5061027761268b565b34801561039057600080fd5b506101d061269d565b3480156103a557600080fd5b506007546001600160a01b031661023f565b3480156103c357600080fd5b50610212612c3b565b3480156103d857600080fd5b506102776103e7366004615188565b612c4a565b3480156103f857600080fd5b5061027761040736600461524f565b612c55565b34801561041857600080fd5b5061021261042736600461505e565b612c8d565b34801561043857600080fd5b506101d0612d15565b34801561044d57600080fd5b506101a661045c3660046152ca565b61333e565b34801561046d57600080fd5b5061021261047c36600461531d565b61336c565b34801561048d57600080fd5b5061027761049c36600461516d565b6133a2565b3480156104ad57600080fd5b506101d061341b565b60006104c182613a42565b92915050565b60606000805b600c548110156105295733600e60006104e78460016153ba565b81526020810191909152604001600020600101546001600160a01b0316036105175781610513816153cd565b9250505b80610521816153cd565b9150506104cd565b50806001600160401b03811115610542576105426151c4565b60405190808252806020026020018201604052801561057b57816020015b610568614d03565b8152602001906001900390816105605790505b5091506000805b600c54811015610afe5733600e600061059c8460016153ba565b81526020810191909152604001600020600101546001600160a01b031603610aec57600e60006105cd8360016153ba565b81526020019081526020016000206040518060a0016040529081600082015481526020016001820160009054906101000a90046001600160a01b03166001600160a01b03166001600160a01b0316815260200160028201548152602001600382015481526020016004820160405180610140016040529081600082018054610654906153e6565b80601f0160208091040260200160405190810160405280929190818152602001828054610680906153e6565b80156106cd5780601f106106a2576101008083540402835291602001916106cd565b820191906000526020600020905b8154815290600101906020018083116106b057829003601f168201915b505050505081526020016001820180546106e6906153e6565b80601f0160208091040260200160405190810160405280929190818152602001828054610712906153e6565b801561075f5780601f106107345761010080835404028352916020019161075f565b820191906000526020600020905b81548152906001019060200180831161074257829003601f168201915b50505050508152602001600282018054610778906153e6565b80601f01602080910402602001604051908101604052809291908181526020018280546107a4906153e6565b80156107f15780601f106107c6576101008083540402835291602001916107f1565b820191906000526020600020905b8154815290600101906020018083116107d457829003601f168201915b5050505050815260200160038201805461080a906153e6565b80601f0160208091040260200160405190810160405280929190818152602001828054610836906153e6565b80156108835780601f1061085857610100808354040283529160200191610883565b820191906000526020600020905b81548152906001019060200180831161086657829003601f168201915b5050505050815260200160048201805461089c906153e6565b80601f01602080910402602001604051908101604052809291908181526020018280546108c8906153e6565b80156109155780601f106108ea57610100808354040283529160200191610915565b820191906000526020600020905b8154815290600101906020018083116108f857829003601f168201915b5050505050815260200160058201805461092e906153e6565b80601f016020809104026020016040519081016040528092919081815260200182805461095a906153e6565b80156109a75780601f1061097c576101008083540402835291602001916109a7565b820191906000526020600020905b81548152906001019060200180831161098a57829003601f168201915b505050505081526020016006820180546109c0906153e6565b80601f01602080910402602001604051908101604052809291908181526020018280546109ec906153e6565b8015610a395780601f10610a0e57610100808354040283529160200191610a39565b820191906000526020600020905b815481529060010190602001808311610a1c57829003601f168201915b50505050508152602001600782015481526020016008820160009054906101000a900460ff1615151515815260200160098201805480602002602001604051908101604052809291908181526020018280548015610ab657602002820191906000526020600020905b815481526020019060010190808311610aa2575b505050919092525050509052508483610ace816153cd565b945081518110610ae057610ae0615420565b60200260200101819052505b80610af6816153cd565b915050610582565b50505090565b6000818152600e60205260409020600c015460609060ff16610b58576040805160008082526020820190925290610b51565b610b3e614d03565b815260200190600190039081610b365790505b5092915050565b6000828152600e60205260409020600d01546001600160401b03811115610b8157610b816151c4565b604051908082528060200260200182016040528015610bba57816020015b610ba7614d03565b815260200190600190039081610b9f5790505b5090506000805b600c548110156111bb576000848152600e60205260408120600d018054909190610bed57610bed615420565b9060005260206000200154600e6000836001610c0991906153ba565b8152602001908152602001600020600001541480610c7657506000848152600e60205260409020600d0180546001908110610c4657610c46615420565b9060005260206000200154600e6000836001610c6291906153ba565b815260200190815260200160002060000154145b156111a957600e6000610c8a8360016153ba565b81526020019081526020016000206040518060a0016040529081600082015481526020016001820160009054906101000a90046001600160a01b03166001600160a01b03166001600160a01b0316815260200160028201548152602001600382015481526020016004820160405180610140016040529081600082018054610d11906153e6565b80601f0160208091040260200160405190810160405280929190818152602001828054610d3d906153e6565b8015610d8a5780601f10610d5f57610100808354040283529160200191610d8a565b820191906000526020600020905b815481529060010190602001808311610d6d57829003601f168201915b50505050508152602001600182018054610da3906153e6565b80601f0160208091040260200160405190810160405280929190818152602001828054610dcf906153e6565b8015610e1c5780601f10610df157610100808354040283529160200191610e1c565b820191906000526020600020905b815481529060010190602001808311610dff57829003601f168201915b50505050508152602001600282018054610e35906153e6565b80601f0160208091040260200160405190810160405280929190818152602001828054610e61906153e6565b8015610eae5780601f10610e8357610100808354040283529160200191610eae565b820191906000526020600020905b815481529060010190602001808311610e9157829003601f168201915b50505050508152602001600382018054610ec7906153e6565b80601f0160208091040260200160405190810160405280929190818152602001828054610ef3906153e6565b8015610f405780601f10610f1557610100808354040283529160200191610f40565b820191906000526020600020905b815481529060010190602001808311610f2357829003601f168201915b50505050508152602001600482018054610f59906153e6565b80601f0160208091040260200160405190810160405280929190818152602001828054610f85906153e6565b8015610fd25780601f10610fa757610100808354040283529160200191610fd2565b820191906000526020600020905b815481529060010190602001808311610fb557829003601f168201915b50505050508152602001600582018054610feb906153e6565b80601f0160208091040260200160405190810160405280929190818152602001828054611017906153e6565b80156110645780601f1061103957610100808354040283529160200191611064565b820191906000526020600020905b81548152906001019060200180831161104757829003601f168201915b5050505050815260200160068201805461107d906153e6565b80601f01602080910402602001604051908101604052809291908181526020018280546110a9906153e6565b80156110f65780601f106110cb576101008083540402835291602001916110f6565b820191906000526020600020905b8154815290600101906020018083116110d957829003601f168201915b50505050508152602001600782015481526020016008820160009054906101000a900460ff161515151581526020016009820180548060200260200160405190810160405280929190818152602001828054801561117357602002820191906000526020600020905b81548152602001906001019080831161115f575b50505091909252505050905250838361118b816153cd565b94508151811061119d5761119d615420565b60200260200101819052505b806111b3816153cd565b915050610bc1565b5050919050565b6060600080546111d1906153e6565b80601f01602080910402602001604051908101604052809291908181526020018280546111fd906153e6565b801561124a5780601f1061121f5761010080835404028352916020019161124a565b820191906000526020600020905b81548152906001019060200180831161122d57829003601f168201915b5050505050905090565b600061125f82613a67565b506000908152600460205260409020546001600160a01b031690565b6000611286826125a5565b9050806001600160a01b0316836001600160a01b0316036112f85760405162461bcd60e51b815260206004820152602160248201527f4552433732313a20617070726f76616c20746f2063757272656e74206f776e656044820152603960f91b60648201526084015b60405180910390fd5b336001600160a01b03821614806113145750611314813361333e565b6113865760405162461bcd60e51b815260206004820152603d60248201527f4552433732313a20617070726f76652063616c6c6572206973206e6f7420746f60448201527f6b656e206f776e6572206f7220617070726f76656420666f7220616c6c00000060648201526084016112ef565b6113908383613ac6565b505050565b61139d613b34565b6000828152600f602052604090205460ff166113f35760405162461bcd60e51b815260206004820152601560248201527411985d1a195c88191bd95cc81b9bdd08195e1a5cdd605a1b60448201526064016112ef565b6000818152600f602052604090205460ff166114495760405162461bcd60e51b8152602060048201526015602482015274135bdd1a195c88191bd95cc81b9bdd08195e1a5cdd605a1b60448201526064016112ef565b600d5434101561149b5760405162461bcd60e51b815260206004820152601d60248201527f496e73756666696369656e742066756e6420666f72206d696e74696e6700000060448201526064016112ef565b6009546000906001600160401b038111156114b8576114b86151c4565b6040519080825280602002602001820160405280156114eb57816020015b60608152602001906001900390816114d65790505b50600980546040805160208084028201810190925282815293945060009084015b828210156115b857838290600052602060002001805461152b906153e6565b80601f0160208091040260200160405190810160405280929190818152602001828054611557906153e6565b80156115a45780601f10611579576101008083540402835291602001916115a4565b820191906000526020600020905b81548152906001019060200180831161158757829003601f168201915b50505050508152602001906001019061150c565b50505050905060006115d86009805490506115d1613b8d565b6000612037565b6000858152600e602052604090206006018054919250906115f8906153e6565b80601f0160208091040260200160405190810160405280929190818152602001828054611624906153e6565b80156116715780601f1061164657610100808354040283529160200191611671565b820191906000526020600020905b81548152906001019060200180831161165457829003601f168201915b50505050508260008151811061168957611689615420565b60209081029190910101526009546116a3906115d1613b8d565b6000848152600e602052604090206006018054919250906116c3906153e6565b80601f01602080910402602001604051908101604052809291908181526020018280546116ef906153e6565b801561173c5780601f106117115761010080835404028352916020019161173c565b820191906000526020600020905b81548152906001019060200180831161171f57829003601f168201915b50505050508260018151811061175457611754615420565b60209081029190910101526009546000906001600160401b0381111561177c5761177c6151c4565b6040519080825280602002602001820160405280156117af57816020015b606081526020019060019003908161179a5790505b50600a80546040805160208084028201810190925282815293945060009084015b8282101561187c5783829060005260206000200180546117ef906153e6565b80601f016020809104026020016040519081016040528092919081815260200182805461181b906153e6565b80156118685780601f1061183d57610100808354040283529160200191611868565b820191906000526020600020905b81548152906001019060200180831161184b57829003601f168201915b5050505050815260200190600101906117d0565b5050505090506000611895600a805490506115d1613b8d565b6000878152600e602052604090206008018054919250906118b5906153e6565b80601f01602080910402602001604051908101604052809291908181526020018280546118e1906153e6565b801561192e5780601f106119035761010080835404028352916020019161192e565b820191906000526020600020905b81548152906001019060200180831161191157829003601f168201915b505050505082828151811061194557611945615420565b6020908102919091010152600a5461195f906115d1613b8d565b6000868152600e6020526040902060080180549192509061197f906153e6565b80601f01602080910402602001604051908101604052809291908181526020018280546119ab906153e6565b80156119f85780601f106119cd576101008083540402835291602001916119f8565b820191906000526020600020905b8154815290600101906020018083116119db57829003601f168201915b5050505050828281518110611a0f57611a0f615420565b60200260200101819052506000611a798584600b805480602002602001604051908101604052809291908181526020018280548015611a6d57602002820191906000526020600020905b815481526020019060010190808311611a59575b50505050506001613ba8565b80516000908152600e602090815260409182902083518155908301516001820180546001600160a01b0319166001600160a01b039092169190911790559082015160028201556060820151600382015560808201518051929350839260048301908190611ae69082615484565b5060208201516001820190611afb9082615484565b5060408201516002820190611b109082615484565b5060608201516003820190611b259082615484565b5060808201516004820190611b3a9082615484565b5060a08201516005820190611b4f9082615484565b5060c08201516006820190611b649082615484565b5060e0820151600782015561010082015160088201805460ff19169115159190911790556101208201518051611ba4916009840191602090910190614d40565b505083516000908152600f60205260408120805460ff19166001179055600c8054945092509050611bd4836153cd565b9190505550611be7338260000151613dd2565b604080518082018252888152602080820189905283516000908152600e90915291909120611c1c91600d909101906002614d40565b505050505050611c2c6001600855565b5050565b611c38613b34565b600d54341015611c8a5760405162461bcd60e51b815260206004820152601d60248201527f496e73756666696369656e742066756e6420666f72206d696e74696e6700000060448201526064016112ef565b6000611e8b6009805480602002602001604051908101604052809291908181526020016000905b82821015611d5d578382906000526020600020018054611cd0906153e6565b80601f0160208091040260200160405190810160405280929190818152602001828054611cfc906153e6565b8015611d495780601f10611d1e57610100808354040283529160200191611d49565b820191906000526020600020905b815481529060010190602001808311611d2c57829003601f168201915b505050505081526020019060010190611cb1565b50505050600a805480602002602001604051908101604052809291908181526020016000905b82821015611e2f578382906000526020600020018054611da2906153e6565b80601f0160208091040260200160405190810160405280929190818152602001828054611dce906153e6565b8015611e1b5780601f10611df057610100808354040283529160200191611e1b565b820191906000526020600020905b815481529060010190602001808311611dfe57829003601f168201915b505050505081526020019060010190611d83565b50505050600b805480602002602001604051908101604052809291908181526020018280548015611e7f57602002820191906000526020600020905b815481526020019060010190808311611e6b575b50505050506000613ba8565b80516000908152600e602090815260409182902083518155908301516001820180546001600160a01b0319166001600160a01b039092169190911790559082015160028201556060820151600382015560808201518051929350839260048301908190611ef89082615484565b5060208201516001820190611f0d9082615484565b5060408201516002820190611f229082615484565b5060608201516003820190611f379082615484565b5060808201516004820190611f4c9082615484565b5060a08201516005820190611f619082615484565b5060c08201516006820190611f769082615484565b5060e0820151600782015561010082015160088201805460ff19169115159190911790556101208201518051611fb6916009840191602090910190614d40565b505083516000908152600f60205260408120805460ff19166001179055600c8054945092509050611fe6836153cd565b9190505550611ff9338260000151613dd2565b506120046001600855565b565b6120103382613dec565b61202c5760405162461bcd60e51b81526004016112ef90615543565b611390838383613e4a565b604080514260208201526bffffffffffffffffffffffff193360601b16918101919091526054810183905260748101829052600090819085906094016040516020818303038152906040528051906020012060001c61209691906155a6565b95945050505050565b6120a7614d03565b6000828152600e6020908152604091829020825160a0810184528154815260018201546001600160a01b0316928101929092526002810154828401526003810154606083015282516101408101909352600481018054929391926080850192919082908290612115906153e6565b80601f0160208091040260200160405190810160405280929190818152602001828054612141906153e6565b801561218e5780601f106121635761010080835404028352916020019161218e565b820191906000526020600020905b81548152906001019060200180831161217157829003601f168201915b505050505081526020016001820180546121a7906153e6565b80601f01602080910402602001604051908101604052809291908181526020018280546121d3906153e6565b80156122205780601f106121f557610100808354040283529160200191612220565b820191906000526020600020905b81548152906001019060200180831161220357829003601f168201915b50505050508152602001600282018054612239906153e6565b80601f0160208091040260200160405190810160405280929190818152602001828054612265906153e6565b80156122b25780601f10612287576101008083540402835291602001916122b2565b820191906000526020600020905b81548152906001019060200180831161229557829003601f168201915b505050505081526020016003820180546122cb906153e6565b80601f01602080910402602001604051908101604052809291908181526020018280546122f7906153e6565b80156123445780601f1061231957610100808354040283529160200191612344565b820191906000526020600020905b81548152906001019060200180831161232757829003601f168201915b5050505050815260200160048201805461235d906153e6565b80601f0160208091040260200160405190810160405280929190818152602001828054612389906153e6565b80156123d65780601f106123ab576101008083540402835291602001916123d6565b820191906000526020600020905b8154815290600101906020018083116123b957829003601f168201915b505050505081526020016005820180546123ef906153e6565b80601f016020809104026020016040519081016040528092919081815260200182805461241b906153e6565b80156124685780601f1061243d57610100808354040283529160200191612468565b820191906000526020600020905b81548152906001019060200180831161244b57829003601f168201915b50505050508152602001600682018054612481906153e6565b80601f01602080910402602001604051908101604052809291908181526020018280546124ad906153e6565b80156124fa5780601f106124cf576101008083540402835291602001916124fa565b820191906000526020600020905b8154815290600101906020018083116124dd57829003601f168201915b50505050508152602001600782015481526020016008820160009054906101000a900460ff161515151581526020016009820180548060200260200160405190810160405280929190818152602001828054801561257757602002820191906000526020600020905b815481526020019060010190808311612563575b5050509190925250505090525092915050565b61139083838360405180602001604052806000815250612c55565b6000818152600260205260408120546001600160a01b0316806104c15760405162461bcd60e51b8152602060048201526018602482015277115490cdcc8c4e881a5b9d985b1a59081d1bdad95b88125160421b60448201526064016112ef565b60006001600160a01b03821661266f5760405162461bcd60e51b815260206004820152602960248201527f4552433732313a2061646472657373207a65726f206973206e6f7420612076616044820152683634b21037bbb732b960b91b60648201526084016112ef565b506001600160a01b031660009081526003602052604090205490565b612693613fae565b6120046000614008565b6060600c546001600160401b038111156126b9576126b96151c4565b6040519080825280602002602001820160405280156126f257816020015b6126df614d03565b8152602001906001900390816126d75790505b50905060005b600c54811015612c3757600e60006127118360016153ba565b81526020019081526020016000206040518060a0016040529081600082015481526020016001820160009054906101000a90046001600160a01b03166001600160a01b03166001600160a01b0316815260200160028201548152602001600382015481526020016004820160405180610140016040529081600082018054612798906153e6565b80601f01602080910402602001604051908101604052809291908181526020018280546127c4906153e6565b80156128115780601f106127e657610100808354040283529160200191612811565b820191906000526020600020905b8154815290600101906020018083116127f457829003601f168201915b5050505050815260200160018201805461282a906153e6565b80601f0160208091040260200160405190810160405280929190818152602001828054612856906153e6565b80156128a35780601f10612878576101008083540402835291602001916128a3565b820191906000526020600020905b81548152906001019060200180831161288657829003601f168201915b505050505081526020016002820180546128bc906153e6565b80601f01602080910402602001604051908101604052809291908181526020018280546128e8906153e6565b80156129355780601f1061290a57610100808354040283529160200191612935565b820191906000526020600020905b81548152906001019060200180831161291857829003601f168201915b5050505050815260200160038201805461294e906153e6565b80601f016020809104026020016040519081016040528092919081815260200182805461297a906153e6565b80156129c75780601f1061299c576101008083540402835291602001916129c7565b820191906000526020600020905b8154815290600101906020018083116129aa57829003601f168201915b505050505081526020016004820180546129e0906153e6565b80601f0160208091040260200160405190810160405280929190818152602001828054612a0c906153e6565b8015612a595780601f10612a2e57610100808354040283529160200191612a59565b820191906000526020600020905b815481529060010190602001808311612a3c57829003601f168201915b50505050508152602001600582018054612a72906153e6565b80601f0160208091040260200160405190810160405280929190818152602001828054612a9e906153e6565b8015612aeb5780601f10612ac057610100808354040283529160200191612aeb565b820191906000526020600020905b815481529060010190602001808311612ace57829003601f168201915b50505050508152602001600682018054612b04906153e6565b80601f0160208091040260200160405190810160405280929190818152602001828054612b30906153e6565b8015612b7d5780601f10612b5257610100808354040283529160200191612b7d565b820191906000526020600020905b815481529060010190602001808311612b6057829003601f168201915b50505050508152602001600782015481526020016008820160009054906101000a900460ff1615151515815260200160098201805480602002602001604051908101604052809291908181526020018280548015612bfa57602002820191906000526020600020905b815481526020019060010190808311612be6575b50505050508152505081525050828281518110612c1957612c19615420565b60200260200101819052508080612c2f906153cd565b9150506126f8565b5090565b6060600180546111d1906153e6565b611c2c33838361405a565b612c5f3383613dec565b612c7b5760405162461bcd60e51b81526004016112ef90615543565b612c8784848484614128565b50505050565b6000818152600260205260409020546060906001600160a01b0316612d0c5760405162461bcd60e51b815260206004820152602f60248201527f4552433732314d657461646174613a2055524920717565727920666f72206e6f60448201526e3732bc34b9ba32b73a103a37b5b2b760891b60648201526084016112ef565b6104c18261415b565b60606000805b600c54811015612d7057600e6000612d348360016153ba565b81526020810191909152604001600020600c015460ff1615612d5e5781612d5a816153cd565b9250505b80612d68816153cd565b915050612d1b565b50806001600160401b03811115612d8957612d896151c4565b604051908082528060200260200182016040528015612dc257816020015b612daf614d03565b815260200190600190039081612da75790505b5091506000805b600c54811015610afe57600e6000612de28360016153ba565b81526020810191909152604001600020600c015460ff161561332c57600e6000612e0d8360016153ba565b81526020019081526020016000206040518060a0016040529081600082015481526020016001820160009054906101000a90046001600160a01b03166001600160a01b03166001600160a01b0316815260200160028201548152602001600382015481526020016004820160405180610140016040529081600082018054612e94906153e6565b80601f0160208091040260200160405190810160405280929190818152602001828054612ec0906153e6565b8015612f0d5780601f10612ee257610100808354040283529160200191612f0d565b820191906000526020600020905b815481529060010190602001808311612ef057829003601f168201915b50505050508152602001600182018054612f26906153e6565b80601f0160208091040260200160405190810160405280929190818152602001828054612f52906153e6565b8015612f9f5780601f10612f7457610100808354040283529160200191612f9f565b820191906000526020600020905b815481529060010190602001808311612f8257829003601f168201915b50505050508152602001600282018054612fb8906153e6565b80601f0160208091040260200160405190810160405280929190818152602001828054612fe4906153e6565b80156130315780601f1061300657610100808354040283529160200191613031565b820191906000526020600020905b81548152906001019060200180831161301457829003601f168201915b5050505050815260200160038201805461304a906153e6565b80601f0160208091040260200160405190810160405280929190818152602001828054613076906153e6565b80156130c35780601f10613098576101008083540402835291602001916130c3565b820191906000526020600020905b8154815290600101906020018083116130a657829003601f168201915b505050505081526020016004820180546130dc906153e6565b80601f0160208091040260200160405190810160405280929190818152602001828054613108906153e6565b80156131555780601f1061312a57610100808354040283529160200191613155565b820191906000526020600020905b81548152906001019060200180831161313857829003601f168201915b5050505050815260200160058201805461316e906153e6565b80601f016020809104026020016040519081016040528092919081815260200182805461319a906153e6565b80156131e75780601f106131bc576101008083540402835291602001916131e7565b820191906000526020600020905b8154815290600101906020018083116131ca57829003601f168201915b50505050508152602001600682018054613200906153e6565b80601f016020809104026020016040519081016040528092919081815260200182805461322c906153e6565b80156132795780601f1061324e57610100808354040283529160200191613279565b820191906000526020600020905b81548152906001019060200180831161325c57829003601f168201915b50505050508152602001600782015481526020016008820160009054906101000a900460ff16151515158152602001600982018054806020026020016040519081016040528092919081815260200182805480156132f657602002820191906000526020600020905b8154815260200190600101908083116132e2575b50505091909252505050905250848361330e816153cd565b94508151811061332057613320615420565b60200260200101819052505b80613336816153cd565b915050612dc9565b6001600160a01b03918216600090815260056020908152604080832093909416825291909152205460ff1690565b606061339a848484604051602001613386939291906155d6565b6040516020818303038152906040526146e5565b949350505050565b6133aa613fae565b6001600160a01b03811661340f5760405162461bcd60e51b815260206004820152602660248201527f4f776e61626c653a206e6577206f776e657220697320746865207a65726f206160448201526564647265737360d01b60648201526084016112ef565b61341881614008565b50565b60606000805b600c5481101561347557600e600061343a8360016153ba565b81526020810191909152604001600020600c015460ff16613463578161345f816153cd565b9250505b8061346d816153cd565b915050613421565b50806001600160401b0381111561348e5761348e6151c4565b6040519080825280602002602001820160405280156134c757816020015b6134b4614d03565b8152602001906001900390816134ac5790505b5091506000805b600c54811015610afe57600e60006134e78360016153ba565b81526020810191909152604001600020600c015460ff16613a3057600e60006135118360016153ba565b81526020019081526020016000206040518060a0016040529081600082015481526020016001820160009054906101000a90046001600160a01b03166001600160a01b03166001600160a01b0316815260200160028201548152602001600382015481526020016004820160405180610140016040529081600082018054613598906153e6565b80601f01602080910402602001604051908101604052809291908181526020018280546135c4906153e6565b80156136115780601f106135e657610100808354040283529160200191613611565b820191906000526020600020905b8154815290600101906020018083116135f457829003601f168201915b5050505050815260200160018201805461362a906153e6565b80601f0160208091040260200160405190810160405280929190818152602001828054613656906153e6565b80156136a35780601f10613678576101008083540402835291602001916136a3565b820191906000526020600020905b81548152906001019060200180831161368657829003601f168201915b505050505081526020016002820180546136bc906153e6565b80601f01602080910402602001604051908101604052809291908181526020018280546136e8906153e6565b80156137355780601f1061370a57610100808354040283529160200191613735565b820191906000526020600020905b81548152906001019060200180831161371857829003601f168201915b5050505050815260200160038201805461374e906153e6565b80601f016020809104026020016040519081016040528092919081815260200182805461377a906153e6565b80156137c75780601f1061379c576101008083540402835291602001916137c7565b820191906000526020600020905b8154815290600101906020018083116137aa57829003601f168201915b505050505081526020016004820180546137e0906153e6565b80601f016020809104026020016040519081016040528092919081815260200182805461380c906153e6565b80156138595780601f1061382e57610100808354040283529160200191613859565b820191906000526020600020905b81548152906001019060200180831161383c57829003601f168201915b50505050508152602001600582018054613872906153e6565b80601f016020809104026020016040519081016040528092919081815260200182805461389e906153e6565b80156138eb5780601f106138c0576101008083540402835291602001916138eb565b820191906000526020600020905b8154815290600101906020018083116138ce57829003601f168201915b50505050508152602001600682018054613904906153e6565b80601f0160208091040260200160405190810160405280929190818152602001828054613930906153e6565b801561397d5780601f106139525761010080835404028352916020019161397d565b820191906000526020600020905b81548152906001019060200180831161396057829003601f168201915b50505050508152602001600782015481526020016008820160009054906101000a900460ff16151515158152602001600982018054806020026020016040519081016040528092919081815260200182805480156139fa57602002820191906000526020600020905b8154815260200190600101908083116139e6575b505050919092525050509052508483613a12816153cd565b945081518110613a2457613a24615420565b60200260200101819052505b80613a3a816153cd565b9150506134ce565b60006001600160e01b03198216632483248360e11b14806104c157506104c18261484b565b6000818152600260205260409020546001600160a01b03166134185760405162461bcd60e51b8152602060048201526018602482015277115490cdcc8c4e881a5b9d985b1a59081d1bdad95b88125160421b60448201526064016112ef565b600081815260046020526040902080546001600160a01b0319166001600160a01b0384169081179091558190613afb826125a5565b6001600160a01b03167f8c5be1e5ebec7d5bd14f71427d1e84f3dd0314c0f7b2291e5b200ac8c7c3b92560405160405180910390a45050565b600260085403613b865760405162461bcd60e51b815260206004820152601f60248201527f5265656e7472616e637947756172643a207265656e7472616e742063616c6c0060448201526064016112ef565b6002600855565b600080613b9c426103e861577c565b6104c1906103e86153ba565b613bb0614d03565b6103e8600c546001613bc291906153ba565b1115613c105760405162461bcd60e51b815260206004820152601f60248201527f4f7574206f6620746f6b656e732c20636865636b206261636b206c617465720060448201526064016112ef565b600c54613c1e9060016153ba565b8152336020820152600d546040820152613c36613b8d565b6060820152613c43614d87565b613c4b612c3b565b8251613c569061489b565b604051602001613c67929190615793565b60408051601f19818403018152919052815282613c9c57604051806060016040528060308152602001615c0a60309139613cb6565b604051806080016040528060438152602001615c3a604391395b602082015285518690613ccb906115d1613b8d565b81518110613cdb57613cdb615420565b6020026020010151816040018190525084613cf986516115d1613b8d565b81518110613d0957613d09615420565b6020026020010151816080018190525083613d2785516115d1613b8d565b81518110613d3757613d37615420565b60200260200101518160e0018181525050613d65613d60610169613d59613b8d565b8551612037565b61489b565b60a08201528151613d7f90613d6090610169904290612037565b60c0820181905260a08201518251613d97929061336c565b604051602001613da791906157d0565b60408051601f1981840301815291905260608201528215156101008201526080820152949350505050565b611c2c82826040518060200160405280600081525061492d565b600080613df8836125a5565b9050806001600160a01b0316846001600160a01b03161480613e1f5750613e1f818561333e565b8061339a5750836001600160a01b0316613e3884611254565b6001600160a01b031614949350505050565b826001600160a01b0316613e5d826125a5565b6001600160a01b031614613e835760405162461bcd60e51b81526004016112ef90615815565b6001600160a01b038216613ee55760405162461bcd60e51b8152602060048201526024808201527f4552433732313a207472616e7366657220746f20746865207a65726f206164646044820152637265737360e01b60648201526084016112ef565b826001600160a01b0316613ef8826125a5565b6001600160a01b031614613f1e5760405162461bcd60e51b81526004016112ef90615815565b600081815260046020908152604080832080546001600160a01b03199081169091556001600160a01b0387811680865260038552838620805460001901905590871680865283862080546001019055868652600290945282852080549092168417909155905184937fddf252ad1be2c89b69c2b068fc378daa952ba7f163c4a11628f55a4df523b3ef91a4505050565b6007546001600160a01b031633146120045760405162461bcd60e51b815260206004820181905260248201527f4f776e61626c653a2063616c6c6572206973206e6f7420746865206f776e657260448201526064016112ef565b600780546001600160a01b038381166001600160a01b0319831681179093556040519116919082907f8be0079c531659141344cd1fd0a4f28419497f9722a3daafe3b4186f6b6457e090600090a35050565b816001600160a01b0316836001600160a01b0316036140bb5760405162461bcd60e51b815260206004820152601960248201527f4552433732313a20617070726f766520746f2063616c6c65720000000000000060448201526064016112ef565b6001600160a01b03838116600081815260056020908152604080832094871680845294825291829020805460ff191686151590811790915591519182527f17307eab39ab6107e8899845ad3d59bd9653f200f220920489ca2b5937696c31910160405180910390a3505050565b614133848484613e4a565b61413f84848484614960565b612c875760405162461bcd60e51b81526004016112ef9061585a565b6000818152600e60209081526040808320815160a0810183528154815260018201546001600160a01b031693810193909352600281015483830152600381015460608481019190915282516101408101909352600482018054919594936080850192909190829082906141cd906153e6565b80601f01602080910402602001604051908101604052809291908181526020018280546141f9906153e6565b80156142465780601f1061421b57610100808354040283529160200191614246565b820191906000526020600020905b81548152906001019060200180831161422957829003601f168201915b5050505050815260200160018201805461425f906153e6565b80601f016020809104026020016040519081016040528092919081815260200182805461428b906153e6565b80156142d85780601f106142ad576101008083540402835291602001916142d8565b820191906000526020600020905b8154815290600101906020018083116142bb57829003601f168201915b505050505081526020016002820180546142f1906153e6565b80601f016020809104026020016040519081016040528092919081815260200182805461431d906153e6565b801561436a5780601f1061433f5761010080835404028352916020019161436a565b820191906000526020600020905b81548152906001019060200180831161434d57829003601f168201915b50505050508152602001600382018054614383906153e6565b80601f01602080910402602001604051908101604052809291908181526020018280546143af906153e6565b80156143fc5780601f106143d1576101008083540402835291602001916143fc565b820191906000526020600020905b8154815290600101906020018083116143df57829003601f168201915b50505050508152602001600482018054614415906153e6565b80601f0160208091040260200160405190810160405280929190818152602001828054614441906153e6565b801561448e5780601f106144635761010080835404028352916020019161448e565b820191906000526020600020905b81548152906001019060200180831161447157829003601f168201915b505050505081526020016005820180546144a7906153e6565b80601f01602080910402602001604051908101604052809291908181526020018280546144d3906153e6565b80156145205780601f106144f557610100808354040283529160200191614520565b820191906000526020600020905b81548152906001019060200180831161450357829003601f168201915b50505050508152602001600682018054614539906153e6565b80601f0160208091040260200160405190810160405280929190818152602001828054614565906153e6565b80156145b25780601f10614587576101008083540402835291602001916145b2565b820191906000526020600020905b81548152906001019060200180831161459557829003601f168201915b50505050508152602001600782015481526020016008820160009054906101000a900460ff161515151581526020016009820180548060200260200160405190810160405280929190818152602001828054801561462f57602002820191906000526020600020905b81548152602001906001019080831161461b575b5050505050815250508152505090506000614648613b8d565b90506000614670836080015160800151846080015160400151856080015160e0015185614a5e565b90506146bc614682846000015161489b565b60808501518051602090910151604087015161469d9061489b565b87608001516060015186604051602001613386969594939291906158ac565b6040516020016146cc91906159ce565b6040516020818303038152906040529350505050919050565b6060815160000361470457505060408051602081019091526000815290565b6000604051806060016040528060408152602001615bca604091399050600060038451600261473391906153ba565b61473d9190615a13565b61474890600461577c565b905060006147578260206153ba565b6001600160401b0381111561476e5761476e6151c4565b6040519080825280601f01601f191660200182016040528015614798576020820181803683370190505b509050818152600183018586518101602084015b818310156148065760039283018051603f601282901c811687015160f890811b8552600c83901c8216880151811b6001860152600683901c8216880151811b60028601529116860151901b938201939093526004016147ac565b60038951066001811461482057600281146148315761483d565b613d3d60f01b60011983015261483d565b603d60f81b6000198301525b509398975050505050505050565b60006001600160e01b031982166380ac58cd60e01b148061487c57506001600160e01b03198216635b5e139f60e01b145b806104c157506301ffc9a760e01b6001600160e01b03198316146104c1565b606060006148a883614aa0565b60010190506000816001600160401b038111156148c7576148c76151c4565b6040519080825280601f01601f1916602001820160405280156148f1576020820181803683370190505b5090508181016020015b600019016f181899199a1a9b1b9c1cb0b131b232b360811b600a86061a8153600a85049450846148fb57509392505050565b6149378383614b78565b6149446000848484614960565b6113905760405162461bcd60e51b81526004016112ef9061585a565b60006001600160a01b0384163b15614a5657604051630a85bd0160e11b81526001600160a01b0385169063150b7a02906149a4903390899088908890600401615a27565b6020604051808303816000875af19250505080156149df575060408051601f3d908101601f191682019092526149dc91810190615a64565b60015b614a3c573d808015614a0d576040519150601f19603f3d011682016040523d82523d6000602084013e614a12565b606091505b508051600003614a345760405162461bcd60e51b81526004016112ef9061585a565b805181602001fd5b6001600160e01b031916630a85bd0160e11b14905061339a565b50600161339a565b60608484614a6b8561489b565b614a748561489b565b604051602001614a879493929190615a81565b6040516020818303038152906040529050949350505050565b60008072184f03e93ff9f4daa797ed6e38ed64bf6a1f0160401b8310614adf5772184f03e93ff9f4daa797ed6e38ed64bf6a1f0160401b830492506040015b6d04ee2d6d415b85acef81000000008310614b0b576d04ee2d6d415b85acef8100000000830492506020015b662386f26fc100008310614b2957662386f26fc10000830492506010015b6305f5e1008310614b41576305f5e100830492506008015b6127108310614b5557612710830492506004015b60648310614b67576064830492506002015b600a83106104c15760010192915050565b6001600160a01b038216614bce5760405162461bcd60e51b815260206004820181905260248201527f4552433732313a206d696e7420746f20746865207a65726f206164647265737360448201526064016112ef565b6000818152600260205260409020546001600160a01b031615614c335760405162461bcd60e51b815260206004820152601c60248201527f4552433732313a20746f6b656e20616c7265616479206d696e7465640000000060448201526064016112ef565b6000818152600260205260409020546001600160a01b031615614c985760405162461bcd60e51b815260206004820152601c60248201527f4552433732313a20746f6b656e20616c7265616479206d696e7465640000000060448201526064016112ef565b6001600160a01b038216600081815260036020908152604080832080546001019055848352600290915280822080546001600160a01b0319168417905551839291907fddf252ad1be2c89b69c2b068fc378daa952ba7f163c4a11628f55a4df523b3ef908290a45050565b6040518060a001604052806000815260200160006001600160a01b031681526020016000815260200160008152602001614d3b614d87565b905290565b828054828255906000526020600020908101928215614d7b579160200282015b82811115614d7b578251825591602001919060010190614d60565b50612c37929150614ddc565b6040518061014001604052806060815260200160608152602001606081526020016060815260200160608152602001606081526020016060815260200160008152602001600015158152602001606081525090565b5b80821115612c375760008155600101614ddd565b6001600160e01b03198116811461341857600080fd5b600060208284031215614e1957600080fd5b8135614e2481614df1565b9392505050565b60005b83811015614e46578181015183820152602001614e2e565b50506000910152565b60008151808452614e67816020860160208601614e2b565b601f01601f19169290920160200192915050565b600081518084526020808501945080840160005b83811015614eab57815187529582019590820190600101614e8f565b509495945050505050565b8051825260018060a01b03602082015116602083015260408101516040830152606081015160608301526000608082015160a0608085015280516101408060a0870152614f076101e0870183614e4f565b91506020830151609f19808885030160c0890152614f258483614e4f565b935060408501519150808885030160e0890152614f428483614e4f565b9350606085015191506101008189860301818a0152614f618584614e4f565b945060808601519250610120828a870301818b0152614f808685614e4f565b955060a08701519350828a870301858b0152614f9c8685614e4f565b955060c08701519450828a8703016101608b0152614fba8686614e4f565b955060e08701516101808b0152818701519450614fdc6101a08b018615159052565b808701519650505080888503016101c08901525050506120968183614e7b565b6000602080830181845280855180835260408601915060408160051b870101925083870160005b8281101561505157603f1988860301845261503f858351614eb6565b94509285019290850190600101615023565b5092979650505050505050565b60006020828403121561507057600080fd5b5035919050565b602081526000614e246020830184614e4f565b80356001600160a01b03811681146150a157600080fd5b919050565b600080604083850312156150b957600080fd5b6150c28361508a565b946020939093013593505050565b600080604083850312156150e357600080fd5b50508035926020909101359150565b60008060006060848603121561510757600080fd5b6151108461508a565b925061511e6020850161508a565b9150604084013590509250925092565b60008060006060848603121561514357600080fd5b505081359360208301359350604090920135919050565b602081526000614e246020830184614eb6565b60006020828403121561517f57600080fd5b614e248261508a565b6000806040838503121561519b57600080fd5b6151a48361508a565b9150602083013580151581146151b957600080fd5b809150509250929050565b634e487b7160e01b600052604160045260246000fd5b60006001600160401b03808411156151f4576151f46151c4565b604051601f8501601f19908116603f0116810190828211818310171561521c5761521c6151c4565b8160405280935085815286868601111561523557600080fd5b858560208301376000602087830101525050509392505050565b6000806000806080858703121561526557600080fd5b61526e8561508a565b935061527c6020860161508a565b92506040850135915060608501356001600160401b0381111561529e57600080fd5b8501601f810187136152af57600080fd5b6152be878235602084016151da565b91505092959194509250565b600080604083850312156152dd57600080fd5b6152e68361508a565b91506152f46020840161508a565b90509250929050565b600082601f83011261530e57600080fd5b614e24838335602085016151da565b60008060006060848603121561533257600080fd5b83356001600160401b038082111561534957600080fd5b615355878388016152fd565b9450602086013591508082111561536b57600080fd5b615377878388016152fd565b9350604086013591508082111561538d57600080fd5b5061539a868287016152fd565b9150509250925092565b634e487b7160e01b600052601160045260246000fd5b808201808211156104c1576104c16153a4565b6000600182016153df576153df6153a4565b5060010190565b600181811c908216806153fa57607f821691505b60208210810361541a57634e487b7160e01b600052602260045260246000fd5b50919050565b634e487b7160e01b600052603260045260246000fd5b601f82111561139057600081815260208120601f850160051c8101602086101561545d5750805b601f850160051c820191505b8181101561547c57828155600101615469565b505050505050565b81516001600160401b0381111561549d5761549d6151c4565b6154b1816154ab84546153e6565b84615436565b602080601f8311600181146154e657600084156154ce5750858301515b600019600386901b1c1916600185901b17855561547c565b600085815260208120601f198616915b82811015615515578886015182559484019460019091019084016154f6565b50858210156155335787850151600019600388901b60f8161c191681555b5050505050600190811b01905550565b6020808252602d908201527f4552433732313a2063616c6c6572206973206e6f7420746f6b656e206f776e6560408201526c1c881bdc88185c1c1c9bdd9959609a1b606082015260800190565b634e487b7160e01b600052601260045260246000fd5b6000826155b5576155b5615590565b500690565b600081516155cc818560208601614e2b565b9290920192915050565b7f3c7376672077696474683d2235303022206865696768743d223530302220786d81527f6c6e733d22687474703a2f2f7777772e77332e6f72672f323030302f737667226020820152601f60f91b60408201527f3c72656374206865696768743d22353030222077696474683d223530302220666041820152680d2d8d87a44d0e6d8560bb1b60618201526000845161567681606a850160208901614e2b565b6d16101a98129610191a929491179f60911b606a918401918201527f3c7465787420783d223530252220793d223530252220646f6d696e616e742d6260788201527f6173656c696e653d226d6964646c65222066696c6c3d2268736c280000000000609882015284516156f08160b3840160208901614e2b565b61577161575f61574c61574660b3858701017f2c20313030252c20383025292220746578742d616e63686f723d226d6964646c8152713291103337b73a16b9b4bd329e911a18911f60711b602082015260320190565b886155ba565b661e17ba32bc3a1f60c91b815260070190565b651e17b9bb339f60d11b815260060190565b979650505050505050565b80820281158282048414176104c1576104c16153a4565b600083516157a5818460208801614e2b565b61202360f01b90830190815283516157c4816002840160208801614e2b565b01600201949350505050565b7f646174613a696d6167652f7376672b786d6c3b6261736536342c00000000000081526000825161580881601a850160208701614e2b565b91909101601a0192915050565b60208082526025908201527f4552433732313a207472616e736665722066726f6d20696e636f72726563742060408201526437bbb732b960d91b606082015260800190565b60208082526032908201527f4552433732313a207472616e7366657220746f206e6f6e20455243373231526560408201527131b2b4bb32b91034b6b83632b6b2b73a32b960711b606082015260800190565b663d9134b2111d1160c91b815286516000906158cf816007850160208c01614e2b565b691116113730b6b2911d1160b11b60079184019182015287516158f9816011840160208c01614e2b565b701116113232b9b1b934b83a34b7b7111d1160791b60119290910191820152865161592b816022840160208b01614e2b565b6a111611383934b1b2911d1160a91b60229290910191820152855161595781602d840160208a01614e2b565b6a11161134b6b0b3b2911d1160a91b602d92909101918201528451615983816038840160208901614e2b565b6159c06159b36159ad6038848601016e11161130ba3a3934b13aba32b9911d60891b8152600f0190565b876155ba565b607d60f81b815260010190565b9a9950505050505050505050565b7f646174613a6170706c69636174696f6e2f6a736f6e3b6261736536342c000000815260008251615a0681601d850160208701614e2b565b91909101601d0192915050565b600082615a2257615a22615590565b500490565b6001600160a01b0385811682528416602082015260408101839052608060608201819052600090615a5a90830184614e4f565b9695505050505050565b600060208284031215615a7657600080fd5b8151614e2481614df1565b7f5b7b2274726169745f74797065223a22456e7669726f6e6d656e74222c227661815265363ab2911d1160d11b602082015260008551615ac8816026850160208a01614e2b565b62089f4b60ea1b60269184019182018190527f7b2274726169745f74797065223a22576561706f6e222c2276616c7565223a2260298301528651615b13816049850160208b01614e2b565b604992019182018190527f7b2274726169745f74797065223a22526172697479222c2276616c7565223a22604c8301528551615b5681606c850160208a01614e2b565b606c9201918201527f7b22646973706c61795f74797065223a2264617465222c2274726169745f7479606f8201527f7065223a2243726561746564222c2276616c7565223a22000000000000000000608f820152615771615bba60a68301866155ba565b62227d5d60e81b81526003019056fe4142434445464748494a4b4c4d4e4f505152535455565758595a6162636465666768696a6b6c6d6e6f707172737475767778797a303132333435363738392b2f54686973204e46542069732072616e646f6d6c792067656e657261746564206279206f757220616c676f726974686d2e54686973204e465420696e686572697465642069747320617474726962757465732066726f6d206f75722072616e646f6d6c792067656e657261746564204e4654732ea26469706673582212203730cb7c0784dd5b83aac30d096b3764506b9c7b81df6d6a1fd08dff7791e3b264736f6c63430008110033",
  "linkReferences": {},
  "deployedLinkReferences": {}
}