{
  "_format": "hh-sol-artifact-1",
  "contractName": "Breeder",
  "sourceName": "contracts/Breeder.sol",
  "abi": [
    {
      "inputs": [],
      "stateMutability": "nonpayable",
      "type": "constructor"
    },
    {
      "anonymous": false,
      "inputs": [
        {
          "indexed": true,
          "internalType": "address",
          "name": "owner",
          "type": "address"
        },
        {
          "indexed": true,
          "internalType": "address",
          "name": "approved",
          "type": "address"
        },
        {
          "indexed": true,
          "internalType": "uint256",
          "name": "tokenId",
          "type": "uint256"
        }
      ],
      "name": "Approval",
      "type": "event"
    },
    {
      "anonymous": false,
      "inputs": [
        {
          "indexed": true,
          "internalType": "address",
          "name": "owner",
          "type": "address"
        },
        {
          "indexed": true,
          "internalType": "address",
          "name": "operator",
          "type": "address"
        },
        {
          "indexed": false,
          "internalType": "bool",
          "name": "approved",
          "type": "bool"
        }
      ],
      "name": "ApprovalForAll",
      "type": "event"
    },
    {
      "anonymous": false,
      "inputs": [
        {
          "indexed": true,
          "internalType": "address",
          "name": "previousOwner",
          "type": "address"
        },
        {
          "indexed": true,
          "internalType": "address",
          "name": "newOwner",
          "type": "address"
        }
      ],
      "name": "OwnershipTransferred",
      "type": "event"
    },
    {
      "anonymous": false,
      "inputs": [
        {
          "indexed": true,
          "internalType": "address",
          "name": "from",
          "type": "address"
        },
        {
          "indexed": true,
          "internalType": "address",
          "name": "to",
          "type": "address"
        },
        {
          "indexed": true,
          "internalType": "uint256",
          "name": "tokenId",
          "type": "uint256"
        }
      ],
      "name": "Transfer",
      "type": "event"
    },
    {
      "inputs": [
        {
          "internalType": "address",
          "name": "to",
          "type": "address"
        },
        {
          "internalType": "uint256",
          "name": "tokenId",
          "type": "uint256"
        }
      ],
      "name": "approve",
      "outputs": [],
      "stateMutability": "nonpayable",
      "type": "function"
    },
    {
      "inputs": [
        {
          "internalType": "address",
          "name": "owner",
          "type": "address"
        }
      ],
      "name": "balanceOf",
      "outputs": [
        {
          "internalType": "uint256",
          "name": "",
          "type": "uint256"
        }
      ],
      "stateMutability": "view",
      "type": "function"
    },
    {
      "inputs": [
        {
          "internalType": "uint256",
          "name": "_fatherTokenId",
          "type": "uint256"
        },
        {
          "internalType": "uint256",
          "name": "_motherTokenId",
          "type": "uint256"
        }
      ],
      "name": "breedNft",
      "outputs": [],
      "stateMutability": "payable",
      "type": "function"
    },
    {
      "inputs": [
        {
          "internalType": "string",
          "name": "bgHue",
          "type": "string"
        },
        {
          "internalType": "string",
          "name": "textHue",
          "type": "string"
        },
        {
          "internalType": "string",
          "name": "name",
          "type": "string"
        }
      ],
      "name": "buildImage",
      "outputs": [
        {
          "internalType": "string",
          "name": "",
          "type": "string"
        }
      ],
      "stateMutability": "pure",
      "type": "function"
    },
    {
      "inputs": [
        {
          "internalType": "string[]",
          "name": "_weapons",
          "type": "string[]"
        },
        {
          "internalType": "string[]",
          "name": "_environments",
          "type": "string[]"
        },
        {
          "internalType": "uint256[]",
          "name": "_rarities",
          "type": "uint256[]"
        },
        {
          "internalType": "bool",
          "name": "_breed",
          "type": "bool"
        }
      ],
      "name": "createNFT",
      "outputs": [
        {
          "components": [
            {
              "internalType": "uint256",
              "name": "id",
              "type": "uint256"
            },
            {
              "internalType": "address",
              "name": "owner",
              "type": "address"
            },
            {
              "internalType": "uint256",
              "name": "mintCost",
              "type": "uint256"
            },
            {
              "internalType": "uint256",
              "name": "timestamp",
              "type": "uint256"
            },
            {
              "components": [
                {
                  "internalType": "string",
                  "name": "name",
                  "type": "string"
                },
                {
                  "internalType": "string",
                  "name": "description",
                  "type": "string"
                },
                {
                  "internalType": "string",
                  "name": "weapon",
                  "type": "string"
                },
                {
                  "internalType": "string",
                  "name": "image",
                  "type": "string"
                },
                {
                  "internalType": "string",
                  "name": "environment",
                  "type": "string"
                },
                {
                  "internalType": "string",
                  "name": "bgHue",
                  "type": "string"
                },
                {
                  "internalType": "string",
                  "name": "textHue",
                  "type": "string"
                },
                {
                  "internalType": "uint256",
                  "name": "rarity",
                  "type": "uint256"
                },
                {
                  "internalType": "bool",
                  "name": "breeded",
                  "type": "bool"
                },
                {
                  "internalType": "uint256[]",
                  "name": "parents",
                  "type": "uint256[]"
                }
              ],
              "internalType": "struct Breeder.TraitStruct",
              "name": "traits",
              "type": "tuple"
            }
          ],
          "internalType": "struct Breeder.MintStruct",
          "name": "nft",
          "type": "tuple"
        }
      ],
      "stateMutability": "view",
      "type": "function"
    },
    {
      "inputs": [],
      "name": "getAllNfts",
      "outputs": [
        {
          "components": [
            {
              "internalType": "uint256",
              "name": "id",
              "type": "uint256"
            },
            {
              "internalType": "address",
              "name": "owner",
              "type": "address"
            },
            {
              "internalType": "uint256",
              "name": "mintCost",
              "type": "uint256"
            },
            {
              "internalType": "uint256",
              "name": "timestamp",
              "type": "uint256"
            },
            {
              "components": [
                {
                  "internalType": "string",
                  "name": "name",
                  "type": "string"
                },
                {
                  "internalType": "string",
                  "name": "description",
                  "type": "string"
                },
                {
                  "internalType": "string",
                  "name": "weapon",
                  "type": "string"
                },
                {
                  "internalType": "string",
                  "name": "image",
                  "type": "string"
                },
                {
                  "internalType": "string",
                  "name": "environment",
                  "type": "string"
                },
                {
                  "internalType": "string",
                  "name": "bgHue",
                  "type": "string"
                },
                {
                  "internalType": "string",
                  "name": "textHue",
                  "type": "string"
                },
                {
                  "internalType": "uint256",
                  "name": "rarity",
                  "type": "uint256"
                },
                {
                  "internalType": "bool",
                  "name": "breeded",
                  "type": "bool"
                },
                {
                  "internalType": "uint256[]",
                  "name": "parents",
                  "type": "uint256[]"
                }
              ],
              "internalType": "struct Breeder.TraitStruct",
              "name": "traits",
              "type": "tuple"
            }
          ],
          "internalType": "struct Breeder.MintStruct[]",
          "name": "Minted",
          "type": "tuple[]"
        }
      ],
      "stateMutability": "view",
      "type": "function"
    },
    {
      "inputs": [
        {
          "internalType": "uint256",
          "name": "tokenId",
          "type": "uint256"
        }
      ],
      "name": "getApproved",
      "outputs": [
        {
          "internalType": "address",
          "name": "",
          "type": "address"
        }
      ],
      "stateMutability": "view",
      "type": "function"
    },
    {
      "inputs": [],
      "name": "getBreededNfts",
      "outputs": [
        {
          "components": [
            {
              "internalType": "uint256",
              "name": "id",
              "type": "uint256"
            },
            {
              "internalType": "address",
              "name": "owner",
              "type": "address"
            },
            {
              "internalType": "uint256",
              "name": "mintCost",
              "type": "uint256"
            },
            {
              "internalType": "uint256",
              "name": "timestamp",
              "type": "uint256"
            },
            {
              "components": [
                {
                  "internalType": "string",
                  "name": "name",
                  "type": "string"
                },
                {
                  "internalType": "string",
                  "name": "description",
                  "type": "string"
                },
                {
                  "internalType": "string",
                  "name": "weapon",
                  "type": "string"
                },
                {
                  "internalType": "string",
                  "name": "image",
                  "type": "string"
                },
                {
                  "internalType": "string",
                  "name": "environment",
                  "type": "string"
                },
                {
                  "internalType": "string",
                  "name": "bgHue",
                  "type": "string"
                },
                {
                  "internalType": "string",
                  "name": "textHue",
                  "type": "string"
                },
                {
                  "internalType": "uint256",
                  "name": "rarity",
                  "type": "uint256"
                },
                {
                  "internalType": "bool",
                  "name": "breeded",
                  "type": "bool"
                },
                {
                  "internalType": "uint256[]",
                  "name": "parents",
                  "type": "uint256[]"
                }
              ],
              "internalType": "struct Breeder.TraitStruct",
              "name": "traits",
              "type": "tuple"
            }
          ],
          "internalType": "struct Breeder.MintStruct[]",
          "name": "Minted",
          "type": "tuple[]"
        }
      ],
      "stateMutability": "view",
      "type": "function"
    },
    {
      "inputs": [],
      "name": "getMintedNfts",
      "outputs": [
        {
          "components": [
            {
              "internalType": "uint256",
              "name": "id",
              "type": "uint256"
            },
            {
              "internalType": "address",
              "name": "owner",
              "type": "address"
            },
            {
              "internalType": "uint256",
              "name": "mintCost",
              "type": "uint256"
            },
            {
              "internalType": "uint256",
              "name": "timestamp",
              "type": "uint256"
            },
            {
              "components": [
                {
                  "internalType": "string",
                  "name": "name",
                  "type": "string"
                },
                {
                  "internalType": "string",
                  "name": "description",
                  "type": "string"
                },
                {
                  "internalType": "string",
                  "name": "weapon",
                  "type": "string"
                },
                {
                  "internalType": "string",
                  "name": "image",
                  "type": "string"
                },
                {
                  "internalType": "string",
                  "name": "environment",
                  "type": "string"
                },
                {
                  "internalType": "string",
                  "name": "bgHue",
                  "type": "string"
                },
                {
                  "internalType": "string",
                  "name": "textHue",
                  "type": "string"
                },
                {
                  "internalType": "uint256",
                  "name": "rarity",
                  "type": "uint256"
                },
                {
                  "internalType": "bool",
                  "name": "breeded",
                  "type": "bool"
                },
                {
                  "internalType": "uint256[]",
                  "name": "parents",
                  "type": "uint256[]"
                }
              ],
              "internalType": "struct Breeder.TraitStruct",
              "name": "traits",
              "type": "tuple"
            }
          ],
          "internalType": "struct Breeder.MintStruct[]",
          "name": "Minted",
          "type": "tuple[]"
        }
      ],
      "stateMutability": "view",
      "type": "function"
    },
    {
      "inputs": [],
      "name": "getMyNfts",
      "outputs": [
        {
          "components": [
            {
              "internalType": "uint256",
              "name": "id",
              "type": "uint256"
            },
            {
              "internalType": "address",
              "name": "owner",
              "type": "address"
            },
            {
              "internalType": "uint256",
              "name": "mintCost",
              "type": "uint256"
            },
            {
              "internalType": "uint256",
              "name": "timestamp",
              "type": "uint256"
            },
            {
              "components": [
                {
                  "internalType": "string",
                  "name": "name",
                  "type": "string"
                },
                {
                  "internalType": "string",
                  "name": "description",
                  "type": "string"
                },
                {
                  "internalType": "string",
                  "name": "weapon",
                  "type": "string"
                },
                {
                  "internalType": "string",
                  "name": "image",
                  "type": "string"
                },
                {
                  "internalType": "string",
                  "name": "environment",
                  "type": "string"
                },
                {
                  "internalType": "string",
                  "name": "bgHue",
                  "type": "string"
                },
                {
                  "internalType": "string",
                  "name": "textHue",
                  "type": "string"
                },
                {
                  "internalType": "uint256",
                  "name": "rarity",
                  "type": "uint256"
                },
                {
                  "internalType": "bool",
                  "name": "breeded",
                  "type": "bool"
                },
                {
                  "internalType": "uint256[]",
                  "name": "parents",
                  "type": "uint256[]"
                }
              ],
              "internalType": "struct Breeder.TraitStruct",
              "name": "traits",
              "type": "tuple"
            }
          ],
          "internalType": "struct Breeder.MintStruct[]",
          "name": "Minted",
          "type": "tuple[]"
        }
      ],
      "stateMutability": "view",
      "type": "function"
    },
    {
      "inputs": [
        {
          "internalType": "uint256",
          "name": "_tokenId",
          "type": "uint256"
        }
      ],
      "name": "getNft",
      "outputs": [
        {
          "components": [
            {
              "internalType": "uint256",
              "name": "id",
              "type": "uint256"
            },
            {
              "internalType": "address",
              "name": "owner",
              "type": "address"
            },
            {
              "internalType": "uint256",
              "name": "mintCost",
              "type": "uint256"
            },
            {
              "internalType": "uint256",
              "name": "timestamp",
              "type": "uint256"
            },
            {
              "components": [
                {
                  "internalType": "string",
                  "name": "name",
                  "type": "string"
                },
                {
                  "internalType": "string",
                  "name": "description",
                  "type": "string"
                },
                {
                  "internalType": "string",
                  "name": "weapon",
                  "type": "string"
                },
                {
                  "internalType": "string",
                  "name": "image",
                  "type": "string"
                },
                {
                  "internalType": "string",
                  "name": "environment",
                  "type": "string"
                },
                {
                  "internalType": "string",
                  "name": "bgHue",
                  "type": "string"
                },
                {
                  "internalType": "string",
                  "name": "textHue",
                  "type": "string"
                },
                {
                  "internalType": "uint256",
                  "name": "rarity",
                  "type": "uint256"
                },
                {
                  "internalType": "bool",
                  "name": "breeded",
                  "type": "bool"
                },
                {
                  "internalType": "uint256[]",
                  "name": "parents",
                  "type": "uint256[]"
                }
              ],
              "internalType": "struct Breeder.TraitStruct",
              "name": "traits",
              "type": "tuple"
            }
          ],
          "internalType": "struct Breeder.MintStruct",
          "name": "",
          "type": "tuple"
        }
      ],
      "stateMutability": "view",
      "type": "function"
    },
    {
      "inputs": [
        {
          "internalType": "uint256",
          "name": "_tokenId",
          "type": "uint256"
        }
      ],
      "name": "getParentsOf",
      "outputs": [
        {
          "components": [
            {
              "internalType": "uint256",
              "name": "id",
              "type": "uint256"
            },
            {
              "internalType": "address",
              "name": "owner",
              "type": "address"
            },
            {
              "internalType": "uint256",
              "name": "mintCost",
              "type": "uint256"
            },
            {
              "internalType": "uint256",
              "name": "timestamp",
              "type": "uint256"
            },
            {
              "components": [
                {
                  "internalType": "string",
                  "name": "name",
                  "type": "string"
                },
                {
                  "internalType": "string",
                  "name": "description",
                  "type": "string"
                },
                {
                  "internalType": "string",
                  "name": "weapon",
                  "type": "string"
                },
                {
                  "internalType": "string",
                  "name": "image",
                  "type": "string"
                },
                {
                  "internalType": "string",
                  "name": "environment",
                  "type": "string"
                },
                {
                  "internalType": "string",
                  "name": "bgHue",
                  "type": "string"
                },
                {
                  "internalType": "string",
                  "name": "textHue",
                  "type": "string"
                },
                {
                  "internalType": "uint256",
                  "name": "rarity",
                  "type": "uint256"
                },
                {
                  "internalType": "bool",
                  "name": "breeded",
                  "type": "bool"
                },
                {
                  "internalType": "uint256[]",
                  "name": "parents",
                  "type": "uint256[]"
                }
              ],
              "internalType": "struct Breeder.TraitStruct",
              "name": "traits",
              "type": "tuple"
            }
          ],
          "internalType": "struct Breeder.MintStruct[]",
          "name": "Minted",
          "type": "tuple[]"
        }
      ],
      "stateMutability": "view",
      "type": "function"
    },
    {
      "inputs": [
        {
          "internalType": "address",
          "name": "owner",
          "type": "address"
        },
        {
          "internalType": "address",
          "name": "operator",
          "type": "address"
        }
      ],
      "name": "isApprovedForAll",
      "outputs": [
        {
          "internalType": "bool",
          "name": "",
          "type": "bool"
        }
      ],
      "stateMutability": "view",
      "type": "function"
    },
    {
      "inputs": [],
      "name": "mint",
      "outputs": [],
      "stateMutability": "payable",
      "type": "function"
    },
    {
      "inputs": [],
      "name": "name",
      "outputs": [
        {
          "internalType": "string",
          "name": "",
          "type": "string"
        }
      ],
      "stateMutability": "view",
      "type": "function"
    },
    {
      "inputs": [],
      "name": "owner",
      "outputs": [
        {
          "internalType": "address",
          "name": "",
          "type": "address"
        }
      ],
      "stateMutability": "view",
      "type": "function"
    },
    {
      "inputs": [
        {
          "internalType": "uint256",
          "name": "tokenId",
          "type": "uint256"
        }
      ],
      "name": "ownerOf",
      "outputs": [
        {
          "internalType": "address",
          "name": "",
          "type": "address"
        }
      ],
      "stateMutability": "view",
      "type": "function"
    },
    {
      "inputs": [
        {
          "internalType": "uint256",
          "name": "_mod",
          "type": "uint256"
        },
        {
          "internalType": "uint256",
          "name": "_seed",
          "type": "uint256"
        },
        {
          "internalType": "uint256",
          "name": "_salt",
          "type": "uint256"
        }
      ],
      "name": "randomNum",
      "outputs": [
        {
          "internalType": "uint256",
          "name": "",
          "type": "uint256"
        }
      ],
      "stateMutability": "view",
      "type": "function"
    },
    {
      "inputs": [],
      "name": "renounceOwnership",
      "outputs": [],
      "stateMutability": "nonpayable",
      "type": "function"
    },
    {
      "inputs": [
        {
          "internalType": "address",
          "name": "from",
          "type": "address"
        },
        {
          "internalType": "address",
          "name": "to",
          "type": "address"
        },
        {
          "internalType": "uint256",
          "name": "tokenId",
          "type": "uint256"
        }
      ],
      "name": "safeTransferFrom",
      "outputs": [],
      "stateMutability": "nonpayable",
      "type": "function"
    },
    {
      "inputs": [
        {
          "internalType": "address",
          "name": "from",
          "type": "address"
        },
        {
          "internalType": "address",
          "name": "to",
          "type": "address"
        },
        {
          "internalType": "uint256",
          "name": "tokenId",
          "type": "uint256"
        },
        {
          "internalType": "bytes",
          "name": "data",
          "type": "bytes"
        }
      ],
      "name": "safeTransferFrom",
      "outputs": [],
      "stateMutability": "nonpayable",
      "type": "function"
    },
    {
      "inputs": [
        {
          "internalType": "address",
          "name": "operator",
          "type": "address"
        },
        {
          "internalType": "bool",
          "name": "approved",
          "type": "bool"
        }
      ],
      "name": "setApprovalForAll",
      "outputs": [],
      "stateMutability": "nonpayable",
      "type": "function"
    },
    {
      "inputs": [
        {
          "internalType": "bytes4",
          "name": "interfaceId",
          "type": "bytes4"
        }
      ],
      "name": "supportsInterface",
      "outputs": [
        {
          "internalType": "bool",
          "name": "",
          "type": "bool"
        }
      ],
      "stateMutability": "view",
      "type": "function"
    },
    {
      "inputs": [],
      "name": "symbol",
      "outputs": [
        {
          "internalType": "string",
          "name": "",
          "type": "string"
        }
      ],
      "stateMutability": "view",
      "type": "function"
    },
    {
      "inputs": [
        {
          "internalType": "uint256",
          "name": "_tokenId",
          "type": "uint256"
        }
      ],
      "name": "tokenURI",
      "outputs": [
        {
          "internalType": "string",
          "name": "",
          "type": "string"
        }
      ],
      "stateMutability": "view",
      "type": "function"
    },
    {
      "inputs": [
        {
          "internalType": "address",
          "name": "from",
          "type": "address"
        },
        {
          "internalType": "address",
          "name": "to",
          "type": "address"
        },
        {
          "internalType": "uint256",
          "name": "tokenId",
          "type": "uint256"
        }
      ],
      "name": "transferFrom",
      "outputs": [],
      "stateMutability": "nonpayable",
      "type": "function"
    },
    {
      "inputs": [
        {
          "internalType": "address",
          "name": "newOwner",
          "type": "address"
        }
      ],
      "name": "transferOwnership",
      "outputs": [],
      "stateMutability": "nonpayable",
      "type": "function"
    }
  ],
  "bytecode": "0x600561018081815264537469636b60d81b6101a05260809081526101c0828152644b6e69666560d81b6101e05260a05261020082815264426c61646560d81b6102205260c05260046102409081526321b63ab160e11b6102605260e052600261028090815261082f60f31b6102a052610100526102c08281526414dddbdc9960da1b6102e052610120526103009182526429b832b0b960d91b610320526101409190915261038060405260076103409081526612185b18995c9960ca1b6103605261016052620000d490600990600862000325565b5060408051610140810182526005610100820190815264537061636560d81b6101208301528152815180830183526003815262536b7960e81b60208281019190915280830191909152825180840184526007808252664465736572747360c81b82840152838501919091528351808501855290815266466f726573747360c81b81830152606083015282518084018452600a8082526947726173736c616e647360b01b8284015260808401919091528351808501855260098152684d6f756e7461696e7360b81b8184015260a08401528351808501855260068152654f6365616e7360d01b8184015260c08401528351808501909452600b84526a5261696e666f726573747360a81b9184019190915260e0820192909252620001fa9190600862000325565b5060408051600580825260c08201909252906020820160a080368337505081516200022d92600b92506020019062000382565b5066470de4df820000600d553480156200024657600080fd5b506040518060400160405280600b81526020016a109c995959195c8813919560aa1b8152506040518060400160405280600381526020016210919560ea1b8152508160009081620002989190620004ed565b506001620002a78282620004ed565b505050620002c4620002be620002cf60201b60201c565b620002d3565b6001600855620005b9565b3390565b600780546001600160a01b038381166001600160a01b0319831681179093556040519116919082907f8be0079c531659141344cd1fd0a4f28419497f9722a3daafe3b4186f6b6457e090600090a35050565b82805482825590600052602060002090810192821562000370579160200282015b828111156200037057825182906200035f9082620004ed565b509160200191906001019062000346565b506200037e929150620003ce565b5090565b828054828255906000526020600020908101928215620003c0579160200282015b82811115620003c0578251825591602001919060010190620003a3565b506200037e929150620003ef565b808211156200037e576000620003e5828262000406565b50600101620003ce565b5b808211156200037e5760008155600101620003f0565b50805462000414906200045e565b6000825580601f1062000425575050565b601f016020900490600052602060002090810190620004459190620003ef565b50565b634e487b7160e01b600052604160045260246000fd5b600181811c908216806200047357607f821691505b6020821081036200049457634e487b7160e01b600052602260045260246000fd5b50919050565b601f821115620004e857600081815260208120601f850160051c81016020861015620004c35750805b601f850160051c820191505b81811015620004e457828155600101620004cf565b5050505b505050565b81516001600160401b0381111562000509576200050962000448565b62000521816200051a84546200045e565b846200049a565b602080601f831160018114620005595760008415620005405750858301515b600019600386901b1c1916600185901b178555620004e4565b600085815260208120601f198616915b828110156200058a5788860151825594840194600190910190840162000569565b5085821015620005a95787850151600019600388901b60f8161c191681555b5050505050600190811b01905550565b615d2c80620005c96000396000f3fe60806040526004361061019c5760003560e01c806370a08231116100ec578063b88d4fde1161008a578063e985e9c511610064578063e985e9c51461047c578063efab35cb1461049c578063f2fde38b146104bc578063fc8a16a0146104dc57600080fd5b8063b88d4fde14610427578063c87b56dd14610447578063d9ce81e51461046757600080fd5b8063800ce0c5116100c6578063800ce0c5146103b45780638da5cb5b146103d457806395d89b41146103f2578063a22cb4651461040757600080fd5b806370a082311461036a578063715018a61461038a578063732e8d731461039f57600080fd5b806311f5a1d411610159578063282946401161013357806328294640146102cf57806341f63bfd146102fd57806342842e0e1461032a5780636352211e1461034a57600080fd5b806311f5a1d4146102945780631249c58b146102a757806323b872dd146102af57600080fd5b806301ffc9a7146101a1578063047b07bf146101d657806305690ae2146101f857806306fdde0314610218578063081812fc1461023a578063095ea7b314610272575b600080fd5b3480156101ad57600080fd5b506101c16101bc366004614cbe565b6104f1565b60405190151581526020015b60405180910390f35b3480156101e257600080fd5b506101eb610502565b6040516101cd9190614eb3565b34801561020457600080fd5b506101eb610213366004614f15565b610b3f565b34801561022457600080fd5b5061022d6111fd565b6040516101cd9190614f2e565b34801561024657600080fd5b5061025a610255366004614f15565b61128f565b6040516001600160a01b0390911681526020016101cd565b34801561027e57600080fd5b5061029261028d366004614f5d565b6112b6565b005b6102926102a2366004614f87565b6113d0565b610292611a39565b3480156102bb57600080fd5b506102926102ca366004614fa9565b611e3f565b3480156102db57600080fd5b506102ef6102ea366004614fe5565b611e70565b6040519081526020016101cd565b34801561030957600080fd5b5061031d610318366004614f15565b611ed8565b6040516101cd9190615011565b34801561033657600080fd5b50610292610345366004614fa9565b6123c3565b34801561035657600080fd5b5061025a610365366004614f15565b6123de565b34801561037657600080fd5b506102ef610385366004615024565b61243e565b34801561039657600080fd5b506102926124c4565b3480156103ab57600080fd5b506101eb6124d6565b3480156103c057600080fd5b5061031d6103cf3660046151be565b612a74565b3480156103e057600080fd5b506007546001600160a01b031661025a565b3480156103fe57600080fd5b5061022d612ca6565b34801561041357600080fd5b506102926104223660046152ac565b612cb5565b34801561043357600080fd5b506102926104423660046152df565b612cc0565b34801561045357600080fd5b5061022d610462366004614f15565b612cf8565b34801561047357600080fd5b506101eb612d80565b34801561048857600080fd5b506101c161049736600461535a565b6133a9565b3480156104a857600080fd5b5061022d6104b7366004615384565b6133d7565b3480156104c857600080fd5b506102926104d7366004615024565b613405565b3480156104e857600080fd5b506101eb61347e565b60006104fc82613aa5565b92915050565b60606000805b600c548110156105645733600e6000610522846001615421565b81526020810191909152604001600020600101546001600160a01b031603610552578161054e81615434565b9250505b8061055c81615434565b915050610508565b50806001600160401b0381111561057d5761057d61503f565b6040519080825280602002602001820160405280156105b657816020015b6105a3614bba565b81526020019060019003908161059b5790505b5091506000805b600c54811015610b395733600e60006105d7846001615421565b81526020810191909152604001600020600101546001600160a01b031603610b2757600e6000610608836001615421565b81526020019081526020016000206040518060a0016040529081600082015481526020016001820160009054906101000a90046001600160a01b03166001600160a01b03166001600160a01b031681526020016002820154815260200160038201548152602001600482016040518061014001604052908160008201805461068f9061544d565b80601f01602080910402602001604051908101604052809291908181526020018280546106bb9061544d565b80156107085780601f106106dd57610100808354040283529160200191610708565b820191906000526020600020905b8154815290600101906020018083116106eb57829003601f168201915b505050505081526020016001820180546107219061544d565b80601f016020809104026020016040519081016040528092919081815260200182805461074d9061544d565b801561079a5780601f1061076f5761010080835404028352916020019161079a565b820191906000526020600020905b81548152906001019060200180831161077d57829003601f168201915b505050505081526020016002820180546107b39061544d565b80601f01602080910402602001604051908101604052809291908181526020018280546107df9061544d565b801561082c5780601f106108015761010080835404028352916020019161082c565b820191906000526020600020905b81548152906001019060200180831161080f57829003601f168201915b505050505081526020016003820180546108459061544d565b80601f01602080910402602001604051908101604052809291908181526020018280546108719061544d565b80156108be5780601f10610893576101008083540402835291602001916108be565b820191906000526020600020905b8154815290600101906020018083116108a157829003601f168201915b505050505081526020016004820180546108d79061544d565b80601f01602080910402602001604051908101604052809291908181526020018280546109039061544d565b80156109505780601f1061092557610100808354040283529160200191610950565b820191906000526020600020905b81548152906001019060200180831161093357829003601f168201915b505050505081526020016005820180546109699061544d565b80601f01602080910402602001604051908101604052809291908181526020018280546109959061544d565b80156109e25780601f106109b7576101008083540402835291602001916109e2565b820191906000526020600020905b8154815290600101906020018083116109c557829003601f168201915b505050505081526020016006820180546109fb9061544d565b80601f0160208091040260200160405190810160405280929190818152602001828054610a279061544d565b8015610a745780601f10610a4957610100808354040283529160200191610a74565b820191906000526020600020905b815481529060010190602001808311610a5757829003601f168201915b50505050508152602001600782015481526020016008820160009054906101000a900460ff1615151515815260200160098201805480602002602001604051908101604052809291908181526020018280548015610af157602002820191906000526020600020905b815481526020019060010190808311610add575b505050919092525050509052508483610b0981615434565b945081518110610b1b57610b1b615487565b60200260200101819052505b80610b3181615434565b9150506105bd565b50505090565b6000818152600e60205260409020600c015460609060ff16610b93576040805160008082526020820190925290610b8c565b610b79614bba565b815260200190600190039081610b715790505b5092915050565b6000828152600e60205260409020600d01546001600160401b03811115610bbc57610bbc61503f565b604051908082528060200260200182016040528015610bf557816020015b610be2614bba565b815260200190600190039081610bda5790505b5090506000805b600c548110156111f6576000848152600e60205260408120600d018054909190610c2857610c28615487565b9060005260206000200154600e6000836001610c449190615421565b8152602001908152602001600020600001541480610cb157506000848152600e60205260409020600d0180546001908110610c8157610c81615487565b9060005260206000200154600e6000836001610c9d9190615421565b815260200190815260200160002060000154145b156111e457600e6000610cc5836001615421565b81526020019081526020016000206040518060a0016040529081600082015481526020016001820160009054906101000a90046001600160a01b03166001600160a01b03166001600160a01b0316815260200160028201548152602001600382015481526020016004820160405180610140016040529081600082018054610d4c9061544d565b80601f0160208091040260200160405190810160405280929190818152602001828054610d789061544d565b8015610dc55780601f10610d9a57610100808354040283529160200191610dc5565b820191906000526020600020905b815481529060010190602001808311610da857829003601f168201915b50505050508152602001600182018054610dde9061544d565b80601f0160208091040260200160405190810160405280929190818152602001828054610e0a9061544d565b8015610e575780601f10610e2c57610100808354040283529160200191610e57565b820191906000526020600020905b815481529060010190602001808311610e3a57829003601f168201915b50505050508152602001600282018054610e709061544d565b80601f0160208091040260200160405190810160405280929190818152602001828054610e9c9061544d565b8015610ee95780601f10610ebe57610100808354040283529160200191610ee9565b820191906000526020600020905b815481529060010190602001808311610ecc57829003601f168201915b50505050508152602001600382018054610f029061544d565b80601f0160208091040260200160405190810160405280929190818152602001828054610f2e9061544d565b8015610f7b5780601f10610f5057610100808354040283529160200191610f7b565b820191906000526020600020905b815481529060010190602001808311610f5e57829003601f168201915b50505050508152602001600482018054610f949061544d565b80601f0160208091040260200160405190810160405280929190818152602001828054610fc09061544d565b801561100d5780601f10610fe25761010080835404028352916020019161100d565b820191906000526020600020905b815481529060010190602001808311610ff057829003601f168201915b505050505081526020016005820180546110269061544d565b80601f01602080910402602001604051908101604052809291908181526020018280546110529061544d565b801561109f5780601f106110745761010080835404028352916020019161109f565b820191906000526020600020905b81548152906001019060200180831161108257829003601f168201915b505050505081526020016006820180546110b89061544d565b80601f01602080910402602001604051908101604052809291908181526020018280546110e49061544d565b80156111315780601f1061110657610100808354040283529160200191611131565b820191906000526020600020905b81548152906001019060200180831161111457829003601f168201915b50505050508152602001600782015481526020016008820160009054906101000a900460ff16151515158152602001600982018054806020026020016040519081016040528092919081815260200182805480156111ae57602002820191906000526020600020905b81548152602001906001019080831161119a575b5050509190925250505090525083836111c681615434565b9450815181106111d8576111d8615487565b60200260200101819052505b806111ee81615434565b915050610bfc565b5050919050565b60606000805461120c9061544d565b80601f01602080910402602001604051908101604052809291908181526020018280546112389061544d565b80156112855780601f1061125a57610100808354040283529160200191611285565b820191906000526020600020905b81548152906001019060200180831161126857829003601f168201915b5050505050905090565b600061129a82613af5565b506000908152600460205260409020546001600160a01b031690565b60006112c1826123de565b9050806001600160a01b0316836001600160a01b0316036113335760405162461bcd60e51b815260206004820152602160248201527f4552433732313a20617070726f76616c20746f2063757272656e74206f776e656044820152603960f91b60648201526084015b60405180910390fd5b336001600160a01b038216148061134f575061134f81336133a9565b6113c15760405162461bcd60e51b815260206004820152603d60248201527f4552433732313a20617070726f76652063616c6c6572206973206e6f7420746f60448201527f6b656e206f776e6572206f7220617070726f76656420666f7220616c6c000000606482015260840161132a565b6113cb8383613b54565b505050565b6113d8613bc2565b6000828152600f602052604090205460ff1661142e5760405162461bcd60e51b815260206004820152601560248201527411985d1a195c88191bd95cc81b9bdd08195e1a5cdd605a1b604482015260640161132a565b6000818152600f602052604090205460ff166114845760405162461bcd60e51b8152602060048201526015602482015274135bdd1a195c88191bd95cc81b9bdd08195e1a5cdd605a1b604482015260640161132a565b600d543410156114d65760405162461bcd60e51b815260206004820152601d60248201527f496e73756666696369656e742066756e6420666f72206d696e74696e67000000604482015260640161132a565b60408051600280825260608201909252600091816020015b60608152602001906001900390816114ee5750506000848152600e602052604090206006018054919250906115229061544d565b80601f016020809104026020016040519081016040528092919081815260200182805461154e9061544d565b801561159b5780601f106115705761010080835404028352916020019161159b565b820191906000526020600020905b81548152906001019060200180831161157e57829003601f168201915b5050505050816000815181106115b3576115b3615487565b6020026020010181905250600e600083815260200190815260200160002060040160020180546115e29061544d565b80601f016020809104026020016040519081016040528092919081815260200182805461160e9061544d565b801561165b5780601f106116305761010080835404028352916020019161165b565b820191906000526020600020905b81548152906001019060200180831161163e57829003601f168201915b50505050508160018151811061167357611673615487565b602090810291909101015260408051600280825260608201909252600091816020015b60608152602001906001900390816116965750506000858152600e602052604090206008018054919250906116ca9061544d565b80601f01602080910402602001604051908101604052809291908181526020018280546116f69061544d565b80156117435780601f1061171857610100808354040283529160200191611743565b820191906000526020600020905b81548152906001019060200180831161172657829003601f168201915b50505050508160008151811061175b5761175b615487565b6020026020010181905250600e6000848152602001908152602001600020600401600401805461178a9061544d565b80601f01602080910402602001604051908101604052809291908181526020018280546117b69061544d565b80156118035780601f106117d857610100808354040283529160200191611803565b820191906000526020600020905b8154815290600101906020018083116117e657829003601f168201915b50505050508160018151811061181b5761181b615487565b602002602001018190525060006118858383600b80548060200260200160405190810160405280929190818152602001828054801561187957602002820191906000526020600020905b815481526020019060010190808311611865575b50505050506001612a74565b905080600e60008360000151600161189d9190615421565b8152602080820192909252604090810160002083518155918301516001830180546001600160a01b0319166001600160a01b03909216919091179055820151600282015560608201516003820155608082015180516004830190819061190390826154eb565b506020820151600182019061191890826154eb565b506040820151600282019061192d90826154eb565b506060820151600382019061194290826154eb565b506080820151600482019061195790826154eb565b5060a0820151600582019061196c90826154eb565b5060c0820151600682019061198190826154eb565b5060e0820151600782015561010082015160088201805460ff191691151591909117905561012082015180516119c1916009840191602090910190614bf7565b5050835160019350600f9250600091506119db9084615421565b815260208101919091526040016000908120805460ff191692151592909217909155600c805491611a0b83615434565b90915550508051611a28903390611a23906001615421565b613c1b565b505050611a356001600855565b5050565b611a41613bc2565b600d54341015611a935760405162461bcd60e51b815260206004820152601d60248201527f496e73756666696369656e742066756e6420666f72206d696e74696e67000000604482015260640161132a565b6000611c946009805480602002602001604051908101604052809291908181526020016000905b82821015611b66578382906000526020600020018054611ad99061544d565b80601f0160208091040260200160405190810160405280929190818152602001828054611b059061544d565b8015611b525780601f10611b2757610100808354040283529160200191611b52565b820191906000526020600020905b815481529060010190602001808311611b3557829003601f168201915b505050505081526020019060010190611aba565b50505050600a805480602002602001604051908101604052809291908181526020016000905b82821015611c38578382906000526020600020018054611bab9061544d565b80601f0160208091040260200160405190810160405280929190818152602001828054611bd79061544d565b8015611c245780601f10611bf957610100808354040283529160200191611c24565b820191906000526020600020905b815481529060010190602001808311611c0757829003601f168201915b505050505081526020019060010190611b8c565b50505050600b805480602002602001604051908101604052809291908181526020018280548015611c8857602002820191906000526020600020905b815481526020019060010190808311611c74575b50505050506000612a74565b905080600e600083600001516001611cac9190615421565b8152602080820192909252604090810160002083518155918301516001830180546001600160a01b0319166001600160a01b039092169190911790558201516002820155606082015160038201556080820151805160048301908190611d1290826154eb565b5060208201516001820190611d2790826154eb565b5060408201516002820190611d3c90826154eb565b5060608201516003820190611d5190826154eb565b5060808201516004820190611d6690826154eb565b5060a08201516005820190611d7b90826154eb565b5060c08201516006820190611d9090826154eb565b5060e0820151600782015561010082015160088201805460ff19169115159190911790556101208201518051611dd0916009840191602090910190614bf7565b5050835160019350600f925060009150611dea9084615421565b815260208101919091526040016000908120805460ff191692151592909217909155600c805491611e1a83615434565b90915550508051611e32903390611a23906001615421565b50611e3d6001600855565b565b611e493382613c35565b611e655760405162461bcd60e51b815260040161132a906155aa565b6113cb838383613c93565b604080514260208201526bffffffffffffffffffffffff193360601b16918101919091526054810183905260748101829052600090819085906094016040516020818303038152906040528051906020012060001c611ecf919061560d565b95945050505050565b611ee0614bba565b6000828152600e6020908152604091829020825160a0810184528154815260018201546001600160a01b0316928101929092526002810154828401526003810154606083015282516101408101909352600481018054929391926080850192919082908290611f4e9061544d565b80601f0160208091040260200160405190810160405280929190818152602001828054611f7a9061544d565b8015611fc75780601f10611f9c57610100808354040283529160200191611fc7565b820191906000526020600020905b815481529060010190602001808311611faa57829003601f168201915b50505050508152602001600182018054611fe09061544d565b80601f016020809104026020016040519081016040528092919081815260200182805461200c9061544d565b80156120595780601f1061202e57610100808354040283529160200191612059565b820191906000526020600020905b81548152906001019060200180831161203c57829003601f168201915b505050505081526020016002820180546120729061544d565b80601f016020809104026020016040519081016040528092919081815260200182805461209e9061544d565b80156120eb5780601f106120c0576101008083540402835291602001916120eb565b820191906000526020600020905b8154815290600101906020018083116120ce57829003601f168201915b505050505081526020016003820180546121049061544d565b80601f01602080910402602001604051908101604052809291908181526020018280546121309061544d565b801561217d5780601f106121525761010080835404028352916020019161217d565b820191906000526020600020905b81548152906001019060200180831161216057829003601f168201915b505050505081526020016004820180546121969061544d565b80601f01602080910402602001604051908101604052809291908181526020018280546121c29061544d565b801561220f5780601f106121e45761010080835404028352916020019161220f565b820191906000526020600020905b8154815290600101906020018083116121f257829003601f168201915b505050505081526020016005820180546122289061544d565b80601f01602080910402602001604051908101604052809291908181526020018280546122549061544d565b80156122a15780601f10612276576101008083540402835291602001916122a1565b820191906000526020600020905b81548152906001019060200180831161228457829003601f168201915b505050505081526020016006820180546122ba9061544d565b80601f01602080910402602001604051908101604052809291908181526020018280546122e69061544d565b80156123335780601f1061230857610100808354040283529160200191612333565b820191906000526020600020905b81548152906001019060200180831161231657829003601f168201915b50505050508152602001600782015481526020016008820160009054906101000a900460ff16151515158152602001600982018054806020026020016040519081016040528092919081815260200182805480156123b057602002820191906000526020600020905b81548152602001906001019080831161239c575b5050509190925250505090525092915050565b6113cb83838360405180602001604052806000815250612cc0565b6000818152600260205260408120546001600160a01b0316806104fc5760405162461bcd60e51b8152602060048201526018602482015277115490cdcc8c4e881a5b9d985b1a59081d1bdad95b88125160421b604482015260640161132a565b60006001600160a01b0382166124a85760405162461bcd60e51b815260206004820152602960248201527f4552433732313a2061646472657373207a65726f206973206e6f7420612076616044820152683634b21037bbb732b960b91b606482015260840161132a565b506001600160a01b031660009081526003602052604090205490565b6124cc613e04565b611e3d6000613e5e565b6060600c546001600160401b038111156124f2576124f261503f565b60405190808252806020026020018201604052801561252b57816020015b612518614bba565b8152602001906001900390816125105790505b50905060005b600c54811015612a7057600e600061254a836001615421565b81526020019081526020016000206040518060a0016040529081600082015481526020016001820160009054906101000a90046001600160a01b03166001600160a01b03166001600160a01b03168152602001600282015481526020016003820154815260200160048201604051806101400160405290816000820180546125d19061544d565b80601f01602080910402602001604051908101604052809291908181526020018280546125fd9061544d565b801561264a5780601f1061261f5761010080835404028352916020019161264a565b820191906000526020600020905b81548152906001019060200180831161262d57829003601f168201915b505050505081526020016001820180546126639061544d565b80601f016020809104026020016040519081016040528092919081815260200182805461268f9061544d565b80156126dc5780601f106126b1576101008083540402835291602001916126dc565b820191906000526020600020905b8154815290600101906020018083116126bf57829003601f168201915b505050505081526020016002820180546126f59061544d565b80601f01602080910402602001604051908101604052809291908181526020018280546127219061544d565b801561276e5780601f106127435761010080835404028352916020019161276e565b820191906000526020600020905b81548152906001019060200180831161275157829003601f168201915b505050505081526020016003820180546127879061544d565b80601f01602080910402602001604051908101604052809291908181526020018280546127b39061544d565b80156128005780601f106127d557610100808354040283529160200191612800565b820191906000526020600020905b8154815290600101906020018083116127e357829003601f168201915b505050505081526020016004820180546128199061544d565b80601f01602080910402602001604051908101604052809291908181526020018280546128459061544d565b80156128925780601f1061286757610100808354040283529160200191612892565b820191906000526020600020905b81548152906001019060200180831161287557829003601f168201915b505050505081526020016005820180546128ab9061544d565b80601f01602080910402602001604051908101604052809291908181526020018280546128d79061544d565b80156129245780601f106128f957610100808354040283529160200191612924565b820191906000526020600020905b81548152906001019060200180831161290757829003601f168201915b5050505050815260200160068201805461293d9061544d565b80601f01602080910402602001604051908101604052809291908181526020018280546129699061544d565b80156129b65780601f1061298b576101008083540402835291602001916129b6565b820191906000526020600020905b81548152906001019060200180831161299957829003601f168201915b50505050508152602001600782015481526020016008820160009054906101000a900460ff1615151515815260200160098201805480602002602001604051908101604052809291908181526020018280548015612a3357602002820191906000526020600020905b815481526020019060010190808311612a1f575b50505050508152505081525050828281518110612a5257612a52615487565b60200260200101819052508080612a6890615434565b915050612531565b5090565b612a7c614bba565b6103e8600c546001612a8e9190615421565b1115612adc5760405162461bcd60e51b815260206004820152601f60248201527f4f7574206f6620746f6b656e732c20636865636b206261636b206c6174657200604482015260640161132a565b600c54612aea906001615421565b8152336020820152600d546040820152612b02613eb0565b6060820152612b0f614c3e565b612b17612ca6565b8251612b2290613ecb565b604051602001612b3392919061563d565b60408051601f19818403018152919052815282612b6857604051806060016040528060308152602001615c8460309139612b82565b604051806080016040528060438152602001615cb4604391395b602082015285518690612b9e90612b97613eb0565b6000611e70565b81518110612bae57612bae615487565b6020026020010151816040018190525084612bcc8651612b97613eb0565b81518110612bdc57612bdc615487565b6020026020010151816080018190525083612bfa8551612b97613eb0565b81518110612c0a57612c0a615487565b60200260200101518160e0018181525050612c38612c33610169612c2c613eb0565b8551611e70565b613ecb565b60a08201528151612c5290612c3390610169904290611e70565b60c0820181905260a08201518251612c6a92906133d7565b604051602001612c7a919061567a565b60408051601f19818403018152919052606082015282151561010082015260808201525b949350505050565b60606001805461120c9061544d565b611a35338383613f5d565b612cca3383613c35565b612ce65760405162461bcd60e51b815260040161132a906155aa565b612cf28484848461402b565b50505050565b6000818152600260205260409020546060906001600160a01b0316612d775760405162461bcd60e51b815260206004820152602f60248201527f4552433732314d657461646174613a2055524920717565727920666f72206e6f60448201526e3732bc34b9ba32b73a103a37b5b2b760891b606482015260840161132a565b6104fc8261405e565b60606000805b600c54811015612ddb57600e6000612d9f836001615421565b81526020810191909152604001600020600c015460ff1615612dc95781612dc581615434565b9250505b80612dd381615434565b915050612d86565b50806001600160401b03811115612df457612df461503f565b604051908082528060200260200182016040528015612e2d57816020015b612e1a614bba565b815260200190600190039081612e125790505b5091506000805b600c54811015610b3957600e6000612e4d836001615421565b81526020810191909152604001600020600c015460ff161561339757600e6000612e78836001615421565b81526020019081526020016000206040518060a0016040529081600082015481526020016001820160009054906101000a90046001600160a01b03166001600160a01b03166001600160a01b0316815260200160028201548152602001600382015481526020016004820160405180610140016040529081600082018054612eff9061544d565b80601f0160208091040260200160405190810160405280929190818152602001828054612f2b9061544d565b8015612f785780601f10612f4d57610100808354040283529160200191612f78565b820191906000526020600020905b815481529060010190602001808311612f5b57829003601f168201915b50505050508152602001600182018054612f919061544d565b80601f0160208091040260200160405190810160405280929190818152602001828054612fbd9061544d565b801561300a5780601f10612fdf5761010080835404028352916020019161300a565b820191906000526020600020905b815481529060010190602001808311612fed57829003601f168201915b505050505081526020016002820180546130239061544d565b80601f016020809104026020016040519081016040528092919081815260200182805461304f9061544d565b801561309c5780601f106130715761010080835404028352916020019161309c565b820191906000526020600020905b81548152906001019060200180831161307f57829003601f168201915b505050505081526020016003820180546130b59061544d565b80601f01602080910402602001604051908101604052809291908181526020018280546130e19061544d565b801561312e5780601f106131035761010080835404028352916020019161312e565b820191906000526020600020905b81548152906001019060200180831161311157829003601f168201915b505050505081526020016004820180546131479061544d565b80601f01602080910402602001604051908101604052809291908181526020018280546131739061544d565b80156131c05780601f10613195576101008083540402835291602001916131c0565b820191906000526020600020905b8154815290600101906020018083116131a357829003601f168201915b505050505081526020016005820180546131d99061544d565b80601f01602080910402602001604051908101604052809291908181526020018280546132059061544d565b80156132525780601f1061322757610100808354040283529160200191613252565b820191906000526020600020905b81548152906001019060200180831161323557829003601f168201915b5050505050815260200160068201805461326b9061544d565b80601f01602080910402602001604051908101604052809291908181526020018280546132979061544d565b80156132e45780601f106132b9576101008083540402835291602001916132e4565b820191906000526020600020905b8154815290600101906020018083116132c757829003601f168201915b50505050508152602001600782015481526020016008820160009054906101000a900460ff161515151581526020016009820180548060200260200160405190810160405280929190818152602001828054801561336157602002820191906000526020600020905b81548152602001906001019080831161334d575b50505091909252505050905250848361337981615434565b94508151811061338b5761338b615487565b60200260200101819052505b806133a181615434565b915050612e34565b6001600160a01b03918216600090815260056020908152604080832093909416825291909152205460ff1690565b6060612c9e8484846040516020016133f1939291906156bf565b6040516020818303038152906040526145e8565b61340d613e04565b6001600160a01b0381166134725760405162461bcd60e51b815260206004820152602660248201527f4f776e61626c653a206e6577206f776e657220697320746865207a65726f206160448201526564647265737360d01b606482015260840161132a565b61347b81613e5e565b50565b60606000805b600c548110156134d857600e600061349d836001615421565b81526020810191909152604001600020600c015460ff166134c657816134c281615434565b9250505b806134d081615434565b915050613484565b50806001600160401b038111156134f1576134f161503f565b60405190808252806020026020018201604052801561352a57816020015b613517614bba565b81526020019060019003908161350f5790505b5091506000805b600c54811015610b3957600e600061354a836001615421565b81526020810191909152604001600020600c015460ff16613a9357600e6000613574836001615421565b81526020019081526020016000206040518060a0016040529081600082015481526020016001820160009054906101000a90046001600160a01b03166001600160a01b03166001600160a01b03168152602001600282015481526020016003820154815260200160048201604051806101400160405290816000820180546135fb9061544d565b80601f01602080910402602001604051908101604052809291908181526020018280546136279061544d565b80156136745780601f1061364957610100808354040283529160200191613674565b820191906000526020600020905b81548152906001019060200180831161365757829003601f168201915b5050505050815260200160018201805461368d9061544d565b80601f01602080910402602001604051908101604052809291908181526020018280546136b99061544d565b80156137065780601f106136db57610100808354040283529160200191613706565b820191906000526020600020905b8154815290600101906020018083116136e957829003601f168201915b5050505050815260200160028201805461371f9061544d565b80601f016020809104026020016040519081016040528092919081815260200182805461374b9061544d565b80156137985780601f1061376d57610100808354040283529160200191613798565b820191906000526020600020905b81548152906001019060200180831161377b57829003601f168201915b505050505081526020016003820180546137b19061544d565b80601f01602080910402602001604051908101604052809291908181526020018280546137dd9061544d565b801561382a5780601f106137ff5761010080835404028352916020019161382a565b820191906000526020600020905b81548152906001019060200180831161380d57829003601f168201915b505050505081526020016004820180546138439061544d565b80601f016020809104026020016040519081016040528092919081815260200182805461386f9061544d565b80156138bc5780601f10613891576101008083540402835291602001916138bc565b820191906000526020600020905b81548152906001019060200180831161389f57829003601f168201915b505050505081526020016005820180546138d59061544d565b80601f01602080910402602001604051908101604052809291908181526020018280546139019061544d565b801561394e5780601f106139235761010080835404028352916020019161394e565b820191906000526020600020905b81548152906001019060200180831161393157829003601f168201915b505050505081526020016006820180546139679061544d565b80601f01602080910402602001604051908101604052809291908181526020018280546139939061544d565b80156139e05780601f106139b5576101008083540402835291602001916139e0565b820191906000526020600020905b8154815290600101906020018083116139c357829003601f168201915b50505050508152602001600782015481526020016008820160009054906101000a900460ff1615151515815260200160098201805480602002602001604051908101604052809291908181526020018280548015613a5d57602002820191906000526020600020905b815481526020019060010190808311613a49575b505050919092525050509052508483613a7581615434565b945081518110613a8757613a87615487565b60200260200101819052505b80613a9d81615434565b915050613531565b60006001600160e01b031982166380ac58cd60e01b1480613ad657506001600160e01b03198216635b5e139f60e01b145b806104fc57506301ffc9a760e01b6001600160e01b03198316146104fc565b6000818152600260205260409020546001600160a01b031661347b5760405162461bcd60e51b8152602060048201526018602482015277115490cdcc8c4e881a5b9d985b1a59081d1bdad95b88125160421b604482015260640161132a565b600081815260046020526040902080546001600160a01b0319166001600160a01b0384169081179091558190613b89826123de565b6001600160a01b03167f8c5be1e5ebec7d5bd14f71427d1e84f3dd0314c0f7b2291e5b200ac8c7c3b92560405160405180910390a45050565b600260085403613c145760405162461bcd60e51b815260206004820152601f60248201527f5265656e7472616e637947756172643a207265656e7472616e742063616c6c00604482015260640161132a565b6002600855565b611a3582826040518060200160405280600081525061474e565b600080613c41836123de565b9050806001600160a01b0316846001600160a01b03161480613c685750613c6881856133a9565b80612c9e5750836001600160a01b0316613c818461128f565b6001600160a01b031614949350505050565b826001600160a01b0316613ca6826123de565b6001600160a01b031614613ccc5760405162461bcd60e51b815260040161132a90615865565b6001600160a01b038216613d2e5760405162461bcd60e51b8152602060048201526024808201527f4552433732313a207472616e7366657220746f20746865207a65726f206164646044820152637265737360e01b606482015260840161132a565b613d3b8383836001614781565b826001600160a01b0316613d4e826123de565b6001600160a01b031614613d745760405162461bcd60e51b815260040161132a90615865565b600081815260046020908152604080832080546001600160a01b03199081169091556001600160a01b0387811680865260038552838620805460001901905590871680865283862080546001019055868652600290945282852080549092168417909155905184937fddf252ad1be2c89b69c2b068fc378daa952ba7f163c4a11628f55a4df523b3ef91a4505050565b6007546001600160a01b03163314611e3d5760405162461bcd60e51b815260206004820181905260248201527f4f776e61626c653a2063616c6c6572206973206e6f7420746865206f776e6572604482015260640161132a565b600780546001600160a01b038381166001600160a01b0319831681179093556040519116919082907f8be0079c531659141344cd1fd0a4f28419497f9722a3daafe3b4186f6b6457e090600090a35050565b600080613ebf426103e86158aa565b6104fc906103e8615421565b60606000613ed883614809565b60010190506000816001600160401b03811115613ef757613ef761503f565b6040519080825280601f01601f191660200182016040528015613f21576020820181803683370190505b5090508181016020015b600019016f181899199a1a9b1b9c1cb0b131b232b360811b600a86061a8153600a8504945084613f2b57509392505050565b816001600160a01b0316836001600160a01b031603613fbe5760405162461bcd60e51b815260206004820152601960248201527f4552433732313a20617070726f766520746f2063616c6c657200000000000000604482015260640161132a565b6001600160a01b03838116600081815260056020908152604080832094871680845294825291829020805460ff191686151590811790915591519182527f17307eab39ab6107e8899845ad3d59bd9653f200f220920489ca2b5937696c31910160405180910390a3505050565b614036848484613c93565b614042848484846148e1565b612cf25760405162461bcd60e51b815260040161132a906158c1565b6000818152600e60209081526040808320815160a0810183528154815260018201546001600160a01b031693810193909352600281015483830152600381015460608481019190915282516101408101909352600482018054919594936080850192909190829082906140d09061544d565b80601f01602080910402602001604051908101604052809291908181526020018280546140fc9061544d565b80156141495780601f1061411e57610100808354040283529160200191614149565b820191906000526020600020905b81548152906001019060200180831161412c57829003601f168201915b505050505081526020016001820180546141629061544d565b80601f016020809104026020016040519081016040528092919081815260200182805461418e9061544d565b80156141db5780601f106141b0576101008083540402835291602001916141db565b820191906000526020600020905b8154815290600101906020018083116141be57829003601f168201915b505050505081526020016002820180546141f49061544d565b80601f01602080910402602001604051908101604052809291908181526020018280546142209061544d565b801561426d5780601f106142425761010080835404028352916020019161426d565b820191906000526020600020905b81548152906001019060200180831161425057829003601f168201915b505050505081526020016003820180546142869061544d565b80601f01602080910402602001604051908101604052809291908181526020018280546142b29061544d565b80156142ff5780601f106142d4576101008083540402835291602001916142ff565b820191906000526020600020905b8154815290600101906020018083116142e257829003601f168201915b505050505081526020016004820180546143189061544d565b80601f01602080910402602001604051908101604052809291908181526020018280546143449061544d565b80156143915780601f1061436657610100808354040283529160200191614391565b820191906000526020600020905b81548152906001019060200180831161437457829003601f168201915b505050505081526020016005820180546143aa9061544d565b80601f01602080910402602001604051908101604052809291908181526020018280546143d69061544d565b80156144235780601f106143f857610100808354040283529160200191614423565b820191906000526020600020905b81548152906001019060200180831161440657829003601f168201915b5050505050815260200160068201805461443c9061544d565b80601f01602080910402602001604051908101604052809291908181526020018280546144689061544d565b80156144b55780601f1061448a576101008083540402835291602001916144b5565b820191906000526020600020905b81548152906001019060200180831161449857829003601f168201915b50505050508152602001600782015481526020016008820160009054906101000a900460ff161515151581526020016009820180548060200260200160405190810160405280929190818152602001828054801561453257602002820191906000526020600020905b81548152602001906001019080831161451e575b505050505081525050815250509050600061454b613eb0565b90506000614573836080015160800151846080015160400151856080015160e00151856149df565b90506145bf6145858460000151613ecb565b6080850151805160209091015160408701516145a090613ecb565b876080015160600151866040516020016133f196959493929190615913565b6040516020016145cf9190615a35565b6040516020818303038152906040529350505050919050565b6060815160000361460757505060408051602081019091526000815290565b6000604051806060016040528060408152602001615c4460409139905060006003845160026146369190615421565b6146409190615a7a565b61464b9060046158aa565b9050600061465a826020615421565b6001600160401b038111156146715761467161503f565b6040519080825280601f01601f19166020018201604052801561469b576020820181803683370190505b509050818152600183018586518101602084015b818310156147095760039283018051603f601282901c811687015160f890811b8552600c83901c8216880151811b6001860152600683901c8216880151811b60028601529116860151901b938201939093526004016146af565b600389510660018114614723576002811461473457614740565b613d3d60f01b600119830152614740565b603d60f81b6000198301525b509398975050505050505050565b6147588383614a21565b61476560008484846148e1565b6113cb5760405162461bcd60e51b815260040161132a906158c1565b6001811115612cf2576001600160a01b038416156147c7576001600160a01b038416600090815260036020526040812080548392906147c1908490615a8e565b90915550505b6001600160a01b03831615612cf2576001600160a01b038316600090815260036020526040812080548392906147fe908490615421565b909155505050505050565b60008072184f03e93ff9f4daa797ed6e38ed64bf6a1f0160401b83106148485772184f03e93ff9f4daa797ed6e38ed64bf6a1f0160401b830492506040015b6d04ee2d6d415b85acef81000000008310614874576d04ee2d6d415b85acef8100000000830492506020015b662386f26fc10000831061489257662386f26fc10000830492506010015b6305f5e10083106148aa576305f5e100830492506008015b61271083106148be57612710830492506004015b606483106148d0576064830492506002015b600a83106104fc5760010192915050565b60006001600160a01b0384163b156149d757604051630a85bd0160e11b81526001600160a01b0385169063150b7a0290614925903390899088908890600401615aa1565b6020604051808303816000875af1925050508015614960575060408051601f3d908101601f1916820190925261495d91810190615ade565b60015b6149bd573d80801561498e576040519150601f19603f3d011682016040523d82523d6000602084013e614993565b606091505b5080516000036149b55760405162461bcd60e51b815260040161132a906158c1565b805181602001fd5b6001600160e01b031916630a85bd0160e11b149050612c9e565b506001612c9e565b606084846149ec85613ecb565b6149f585613ecb565b604051602001614a089493929190615afb565b6040516020818303038152906040529050949350505050565b6001600160a01b038216614a775760405162461bcd60e51b815260206004820181905260248201527f4552433732313a206d696e7420746f20746865207a65726f2061646472657373604482015260640161132a565b6000818152600260205260409020546001600160a01b031615614adc5760405162461bcd60e51b815260206004820152601c60248201527f4552433732313a20746f6b656e20616c7265616479206d696e74656400000000604482015260640161132a565b614aea600083836001614781565b6000818152600260205260409020546001600160a01b031615614b4f5760405162461bcd60e51b815260206004820152601c60248201527f4552433732313a20746f6b656e20616c7265616479206d696e74656400000000604482015260640161132a565b6001600160a01b038216600081815260036020908152604080832080546001019055848352600290915280822080546001600160a01b0319168417905551839291907fddf252ad1be2c89b69c2b068fc378daa952ba7f163c4a11628f55a4df523b3ef908290a45050565b6040518060a001604052806000815260200160006001600160a01b031681526020016000815260200160008152602001614bf2614c3e565b905290565b828054828255906000526020600020908101928215614c32579160200282015b82811115614c32578251825591602001919060010190614c17565b50612a70929150614c93565b6040518061014001604052806060815260200160608152602001606081526020016060815260200160608152602001606081526020016060815260200160008152602001600015158152602001606081525090565b5b80821115612a705760008155600101614c94565b6001600160e01b03198116811461347b57600080fd5b600060208284031215614cd057600080fd5b8135614cdb81614ca8565b9392505050565b60005b83811015614cfd578181015183820152602001614ce5565b50506000910152565b60008151808452614d1e816020860160208601614ce2565b601f01601f19169290920160200192915050565b600081518084526020808501945080840160005b83811015614d6257815187529582019590820190600101614d46565b509495945050505050565b8051825260018060a01b03602082015116602083015260408101516040830152606081015160608301526000608082015160a0608085015280516101408060a0870152614dbe6101e0870183614d06565b91506020830151609f19808885030160c0890152614ddc8483614d06565b935060408501519150808885030160e0890152614df98483614d06565b9350606085015191506101008189860301818a0152614e188584614d06565b945060808601519250610120828a870301818b0152614e378685614d06565b955060a08701519350828a870301858b0152614e538685614d06565b955060c08701519450828a8703016101608b0152614e718686614d06565b955060e08701516101808b0152818701519450614e936101a08b018615159052565b808701519650505080888503016101c0890152505050611ecf8183614d32565b6000602080830181845280855180835260408601915060408160051b870101925083870160005b82811015614f0857603f19888603018452614ef6858351614d6d565b94509285019290850190600101614eda565b5092979650505050505050565b600060208284031215614f2757600080fd5b5035919050565b602081526000614cdb6020830184614d06565b80356001600160a01b0381168114614f5857600080fd5b919050565b60008060408385031215614f7057600080fd5b614f7983614f41565b946020939093013593505050565b60008060408385031215614f9a57600080fd5b50508035926020909101359150565b600080600060608486031215614fbe57600080fd5b614fc784614f41565b9250614fd560208501614f41565b9150604084013590509250925092565b600080600060608486031215614ffa57600080fd5b505081359360208301359350604090920135919050565b602081526000614cdb6020830184614d6d565b60006020828403121561503657600080fd5b614cdb82614f41565b634e487b7160e01b600052604160045260246000fd5b604051601f8201601f191681016001600160401b038111828210171561507d5761507d61503f565b604052919050565b60006001600160401b0382111561509e5761509e61503f565b5060051b60200190565b60006001600160401b038311156150c1576150c161503f565b6150d4601f8401601f1916602001615055565b90508281528383830111156150e857600080fd5b828260208301376000602084830101529392505050565b600082601f83011261511057600080fd5b614cdb838335602085016150a8565b600082601f83011261513057600080fd5b8135602061514561514083615085565b615055565b82815260059290921b8401810191818101908684111561516457600080fd5b8286015b848110156151a35780356001600160401b038111156151875760008081fd5b6151958986838b01016150ff565b845250918301918301615168565b509695505050505050565b80358015158114614f5857600080fd5b600080600080608085870312156151d457600080fd5b84356001600160401b03808211156151eb57600080fd5b6151f78883890161511f565b955060209150818701358181111561520e57600080fd5b61521a89828a0161511f565b95505060408701358181111561522f57600080fd5b87019050601f8101881361524257600080fd5b803561525061514082615085565b81815260059190911b8201830190838101908a83111561526f57600080fd5b928401925b8284101561528d57833582529284019290840190615274565b80965050505050506152a1606086016151ae565b905092959194509250565b600080604083850312156152bf57600080fd5b6152c883614f41565b91506152d6602084016151ae565b90509250929050565b600080600080608085870312156152f557600080fd5b6152fe85614f41565b935061530c60208601614f41565b92506040850135915060608501356001600160401b0381111561532e57600080fd5b8501601f8101871361533f57600080fd5b61534e878235602084016150a8565b91505092959194509250565b6000806040838503121561536d57600080fd5b61537683614f41565b91506152d660208401614f41565b60008060006060848603121561539957600080fd5b83356001600160401b03808211156153b057600080fd5b6153bc878388016150ff565b945060208601359150808211156153d257600080fd5b6153de878388016150ff565b935060408601359150808211156153f457600080fd5b50615401868287016150ff565b9150509250925092565b634e487b7160e01b600052601160045260246000fd5b808201808211156104fc576104fc61540b565b6000600182016154465761544661540b565b5060010190565b600181811c9082168061546157607f821691505b60208210810361548157634e487b7160e01b600052602260045260246000fd5b50919050565b634e487b7160e01b600052603260045260246000fd5b601f8211156113cb57600081815260208120601f850160051c810160208610156154c45750805b601f850160051c820191505b818110156154e3578281556001016154d0565b505050505050565b81516001600160401b038111156155045761550461503f565b61551881615512845461544d565b8461549d565b602080601f83116001811461554d57600084156155355750858301515b600019600386901b1c1916600185901b1785556154e3565b600085815260208120601f198616915b8281101561557c5788860151825594840194600190910190840161555d565b508582101561559a5787850151600019600388901b60f8161c191681555b5050505050600190811b01905550565b6020808252602d908201527f4552433732313a2063616c6c6572206973206e6f7420746f6b656e206f776e6560408201526c1c881bdc88185c1c1c9bdd9959609a1b606082015260800190565b634e487b7160e01b600052601260045260246000fd5b60008261561c5761561c6155f7565b500690565b60008151615633818560208601614ce2565b9290920192915050565b6000835161564f818460208801614ce2565b61202360f01b908301908152835161566e816002840160208801614ce2565b01600201949350505050565b7f646174613a696d6167652f7376672b786d6c3b6261736536342c0000000000008152600082516156b281601a850160208701614ce2565b91909101601a0192915050565b7f3c7376672077696474683d2235303022206865696768743d223530302220786d81527f6c6e733d22687474703a2f2f7777772e77332e6f72672f323030302f737667226020820152601f60f91b60408201527f3c72656374206865696768743d22353030222077696474683d223530302220666041820152680d2d8d87a44d0e6d8560bb1b60618201526000845161575f81606a850160208901614ce2565b6d16101a98129610191a929491179f60911b606a918401918201527f3c7465787420783d223530252220793d223530252220646f6d696e616e742d6260788201527f6173656c696e653d226d6964646c65222066696c6c3d2268736c280000000000609882015284516157d98160b3840160208901614ce2565b61585a61584861583561582f60b3858701017f2c20313030252c20383025292220746578742d616e63686f723d226d6964646c8152713291103337b73a16b9b4bd329e911a18911f60711b602082015260320190565b88615621565b661e17ba32bc3a1f60c91b815260070190565b651e17b9bb339f60d11b815260060190565b979650505050505050565b60208082526025908201527f4552433732313a207472616e736665722066726f6d20696e636f72726563742060408201526437bbb732b960d91b606082015260800190565b80820281158282048414176104fc576104fc61540b565b60208082526032908201527f4552433732313a207472616e7366657220746f206e6f6e20455243373231526560408201527131b2b4bb32b91034b6b83632b6b2b73a32b960711b606082015260800190565b663d9134b2111d1160c91b81528651600090615936816007850160208c01614ce2565b691116113730b6b2911d1160b11b6007918401918201528751615960816011840160208c01614ce2565b701116113232b9b1b934b83a34b7b7111d1160791b601192909101918201528651615992816022840160208b01614ce2565b6a111611383934b1b2911d1160a91b6022929091019182015285516159be81602d840160208a01614ce2565b6a11161134b6b0b3b2911d1160a91b602d929091019182015284516159ea816038840160208901614ce2565b615a27615a1a615a146038848601016e11161130ba3a3934b13aba32b9911d60891b8152600f0190565b87615621565b607d60f81b815260010190565b9a9950505050505050505050565b7f646174613a6170706c69636174696f6e2f6a736f6e3b6261736536342c000000815260008251615a6d81601d850160208701614ce2565b91909101601d0192915050565b600082615a8957615a896155f7565b500490565b818103818111156104fc576104fc61540b565b6001600160a01b0385811682528416602082015260408101839052608060608201819052600090615ad490830184614d06565b9695505050505050565b600060208284031215615af057600080fd5b8151614cdb81614ca8565b7f5b7b2274726169745f74797065223a22456e7669726f6e6d656e74222c227661815265363ab2911d1160d11b602082015260008551615b42816026850160208a01614ce2565b62089f4b60ea1b60269184019182018190527f7b2274726169745f74797065223a22576561706f6e222c2276616c7565223a2260298301528651615b8d816049850160208b01614ce2565b604992019182018190527f7b2274726169745f74797065223a22526172697479222c2276616c7565223a22604c8301528551615bd081606c850160208a01614ce2565b606c9201918201527f7b22646973706c61795f74797065223a2264617465222c2274726169745f7479606f8201527f7065223a2243726561746564222c2276616c7565223a22000000000000000000608f82015261585a615c3460a6830186615621565b62227d5d60e81b81526003019056fe4142434445464748494a4b4c4d4e4f505152535455565758595a6162636465666768696a6b6c6d6e6f707172737475767778797a303132333435363738392b2f54686973204e46542069732072616e646f6d6c792067656e657261746564206279206f757220616c676f726974686d2e54686973204e465420696e686572697465642069747320617474726962757465732066726f6d206f75722072616e646f6d6c792067656e657261746564204e4654732ea264697066735822122019981f2f7fd29dbfacf8226785d3315119cb9da6e2d78ea478510328c1c0698664736f6c63430008110033",
  "linkReferences": {},
  "deployedLinkReferences": {}
}